{"abi":[{"inputs":[{"internalType":"uint256","name":"minimum","type":"uint256"},{"internalType":"address","name":"creator","type":"address"}],"stateMutability":"nonpayable","type":"constructor"},{"inputs":[{"internalType":"uint256","name":"indexvalue","type":"uint256"}],"name":"approveRequest","outputs":[],"stateMutability":"nonpayable","type":"function"},{"inputs":[{"internalType":"address","name":"","type":"address"}],"name":"approvers","outputs":[{"internalType":"bool","name":"","type":"bool"}],"stateMutability":"view","type":"function"},{"inputs":[],"name":"approversCount","outputs":[{"internalType":"uint256","name":"","type":"uint256"}],"stateMutability":"view","type":"function"},{"inputs":[],"name":"contribute","outputs":[],"stateMutability":"payable","type":"function"},{"inputs":[{"internalType":"string","name":"description","type":"string"},{"internalType":"uint256","name":"value","type":"uint256"},{"internalType":"address","name":"recipient","type":"address"}],"name":"createRequest","outputs":[],"stateMutability":"nonpayable","type":"function"},{"inputs":[{"internalType":"uint256","name":"indexvalue","type":"uint256"}],"name":"finalizeRequest","outputs":[],"stateMutability":"nonpayable","type":"function"},{"inputs":[],"name":"getRequestsCount","outputs":[{"internalType":"uint256","name":"","type":"uint256"}],"stateMutability":"view","type":"function"},{"inputs":[],"name":"getSummary","outputs":[{"internalType":"uint256","name":"","type":"uint256"},{"internalType":"uint256","name":"","type":"uint256"},{"internalType":"uint256","name":"","type":"uint256"},{"internalType":"uint256","name":"","type":"uint256"},{"internalType":"address","name":"","type":"address"}],"stateMutability":"view","type":"function"},{"inputs":[],"name":"manager","outputs":[{"internalType":"address","name":"","type":"address"}],"stateMutability":"view","type":"function"},{"inputs":[],"name":"minimumContribution","outputs":[{"internalType":"uint256","name":"","type":"uint256"}],"stateMutability":"view","type":"function"},{"inputs":[{"internalType":"uint256","name":"","type":"uint256"}],"name":"requests","outputs":[{"internalType":"string","name":"description","type":"string"},{"internalType":"uint256","name":"value","type":"uint256"},{"internalType":"address","name":"recipient","type":"address"},{"internalType":"bool","name":"complete","type":"bool"},{"internalType":"uint256","name":"approvalCount","type":"uint256"}],"stateMutability":"view","type":"function"}],"devdoc":{"kind":"dev","methods":{},"version":1},"evm":{"assembly":"    /* \"Campaign.sol\":432:3216  contract Campaign{... */\n  mstore(0x40, 0x80)\n    /* \"Campaign.sol\":1114:1228  constructor(uint minimum,address creator){... */\n  callvalue\n  dup1\n  iszero\n  tag_1\n  jumpi\n  0x00\n  dup1\n  revert\ntag_1:\n  pop\n  mload(0x40)\n  sub(codesize, bytecodeSize)\n  dup1\n  bytecodeSize\n  dup4\n  codecopy\n  dup2\n  dup2\n  add\n  0x40\n  mstore\n  dup2\n  add\n  swap1\n  tag_2\n  swap2\n  swap1\n  tag_3\n  jump\t// in\ntag_2:\n    /* \"Campaign.sol\":1175:1182  creator */\n  dup1\n    /* \"Campaign.sol\":1165:1172  manager */\n  0x02\n  0x00\n    /* \"Campaign.sol\":1165:1182  manager = creator */\n  0x0100\n  exp\n  dup2\n  sload\n  dup2\n  0xffffffffffffffffffffffffffffffffffffffff\n  mul\n  not\n  and\n  swap1\n  dup4\n  0xffffffffffffffffffffffffffffffffffffffff\n  and\n  mul\n  or\n  swap1\n  sstore\n  pop\n    /* \"Campaign.sol\":1214:1221  minimum */\n  dup2\n    /* \"Campaign.sol\":1192:1211  minimumContribution */\n  0x03\n    /* \"Campaign.sol\":1192:1221  minimumContribution = minimum */\n  dup2\n  swap1\n  sstore\n  pop\n    /* \"Campaign.sol\":1114:1228  constructor(uint minimum,address creator){... */\n  pop\n  pop\n    /* \"Campaign.sol\":432:3216  contract Campaign{... */\n  jump(tag_6)\n    /* \"#utility.yul\":88:205   */\ntag_8:\n    /* \"#utility.yul\":197:198   */\n  0x00\n    /* \"#utility.yul\":194:195   */\n  dup1\n    /* \"#utility.yul\":187:199   */\n  revert\n    /* \"#utility.yul\":334:411   */\ntag_10:\n    /* \"#utility.yul\":371:378   */\n  0x00\n    /* \"#utility.yul\":400:405   */\n  dup2\n    /* \"#utility.yul\":389:405   */\n  swap1\n  pop\n    /* \"#utility.yul\":334:411   */\n  swap2\n  swap1\n  pop\n  jump\t// out\n    /* \"#utility.yul\":417:539   */\ntag_11:\n    /* \"#utility.yul\":490:514   */\n  tag_23\n    /* \"#utility.yul\":508:513   */\n  dup2\n    /* \"#utility.yul\":490:514   */\n  tag_10\n  jump\t// in\ntag_23:\n    /* \"#utility.yul\":483:488   */\n  dup2\n    /* \"#utility.yul\":480:515   */\n  eq\n    /* \"#utility.yul\":470:533   */\n  tag_24\n  jumpi\n    /* \"#utility.yul\":529:530   */\n  0x00\n    /* \"#utility.yul\":526:527   */\n  dup1\n    /* \"#utility.yul\":519:531   */\n  revert\n    /* \"#utility.yul\":470:533   */\ntag_24:\n    /* \"#utility.yul\":417:539   */\n  pop\n  jump\t// out\n    /* \"#utility.yul\":545:688   */\ntag_12:\n    /* \"#utility.yul\":602:607   */\n  0x00\n    /* \"#utility.yul\":633:639   */\n  dup2\n    /* \"#utility.yul\":627:640   */\n  mload\n    /* \"#utility.yul\":618:640   */\n  swap1\n  pop\n    /* \"#utility.yul\":649:682   */\n  tag_26\n    /* \"#utility.yul\":676:681   */\n  dup2\n    /* \"#utility.yul\":649:682   */\n  tag_11\n  jump\t// in\ntag_26:\n    /* \"#utility.yul\":545:688   */\n  swap3\n  swap2\n  pop\n  pop\n  jump\t// out\n    /* \"#utility.yul\":694:820   */\ntag_13:\n    /* \"#utility.yul\":731:738   */\n  0x00\n    /* \"#utility.yul\":771:813   */\n  0xffffffffffffffffffffffffffffffffffffffff\n    /* \"#utility.yul\":764:769   */\n  dup3\n    /* \"#utility.yul\":760:814   */\n  and\n    /* \"#utility.yul\":749:814   */\n  swap1\n  pop\n    /* \"#utility.yul\":694:820   */\n  swap2\n  swap1\n  pop\n  jump\t// out\n    /* \"#utility.yul\":826:922   */\ntag_14:\n    /* \"#utility.yul\":863:870   */\n  0x00\n    /* \"#utility.yul\":892:916   */\n  tag_29\n    /* \"#utility.yul\":910:915   */\n  dup3\n    /* \"#utility.yul\":892:916   */\n  tag_13\n  jump\t// in\ntag_29:\n    /* \"#utility.yul\":881:916   */\n  swap1\n  pop\n    /* \"#utility.yul\":826:922   */\n  swap2\n  swap1\n  pop\n  jump\t// out\n    /* \"#utility.yul\":928:1050   */\ntag_15:\n    /* \"#utility.yul\":1001:1025   */\n  tag_31\n    /* \"#utility.yul\":1019:1024   */\n  dup2\n    /* \"#utility.yul\":1001:1025   */\n  tag_14\n  jump\t// in\ntag_31:\n    /* \"#utility.yul\":994:999   */\n  dup2\n    /* \"#utility.yul\":991:1026   */\n  eq\n    /* \"#utility.yul\":981:1044   */\n  tag_32\n  jumpi\n    /* \"#utility.yul\":1040:1041   */\n  0x00\n    /* \"#utility.yul\":1037:1038   */\n  dup1\n    /* \"#utility.yul\":1030:1042   */\n  revert\n    /* \"#utility.yul\":981:1044   */\ntag_32:\n    /* \"#utility.yul\":928:1050   */\n  pop\n  jump\t// out\n    /* \"#utility.yul\":1056:1199   */\ntag_16:\n    /* \"#utility.yul\":1113:1118   */\n  0x00\n    /* \"#utility.yul\":1144:1150   */\n  dup2\n    /* \"#utility.yul\":1138:1151   */\n  mload\n    /* \"#utility.yul\":1129:1151   */\n  swap1\n  pop\n    /* \"#utility.yul\":1160:1193   */\n  tag_34\n    /* \"#utility.yul\":1187:1192   */\n  dup2\n    /* \"#utility.yul\":1160:1193   */\n  tag_15\n  jump\t// in\ntag_34:\n    /* \"#utility.yul\":1056:1199   */\n  swap3\n  swap2\n  pop\n  pop\n  jump\t// out\n    /* \"#utility.yul\":1205:1712   */\ntag_3:\n    /* \"#utility.yul\":1284:1290   */\n  0x00\n    /* \"#utility.yul\":1292:1298   */\n  dup1\n    /* \"#utility.yul\":1341:1343   */\n  0x40\n    /* \"#utility.yul\":1329:1338   */\n  dup4\n    /* \"#utility.yul\":1320:1327   */\n  dup6\n    /* \"#utility.yul\":1316:1339   */\n  sub\n    /* \"#utility.yul\":1312:1344   */\n  slt\n    /* \"#utility.yul\":1309:1428   */\n  iszero\n  tag_36\n  jumpi\n    /* \"#utility.yul\":1347:1426   */\n  tag_37\n  tag_8\n  jump\t// in\ntag_37:\n    /* \"#utility.yul\":1309:1428   */\ntag_36:\n    /* \"#utility.yul\":1467:1468   */\n  0x00\n    /* \"#utility.yul\":1492:1556   */\n  tag_38\n    /* \"#utility.yul\":1548:1555   */\n  dup6\n    /* \"#utility.yul\":1539:1545   */\n  dup3\n    /* \"#utility.yul\":1528:1537   */\n  dup7\n    /* \"#utility.yul\":1524:1546   */\n  add\n    /* \"#utility.yul\":1492:1556   */\n  tag_12\n  jump\t// in\ntag_38:\n    /* \"#utility.yul\":1482:1556   */\n  swap3\n  pop\n    /* \"#utility.yul\":1438:1566   */\n  pop\n    /* \"#utility.yul\":1605:1607   */\n  0x20\n    /* \"#utility.yul\":1631:1695   */\n  tag_39\n    /* \"#utility.yul\":1687:1694   */\n  dup6\n    /* \"#utility.yul\":1678:1684   */\n  dup3\n    /* \"#utility.yul\":1667:1676   */\n  dup7\n    /* \"#utility.yul\":1663:1685   */\n  add\n    /* \"#utility.yul\":1631:1695   */\n  tag_16\n  jump\t// in\ntag_39:\n    /* \"#utility.yul\":1621:1695   */\n  swap2\n  pop\n    /* \"#utility.yul\":1576:1705   */\n  pop\n    /* \"#utility.yul\":1205:1712   */\n  swap3\n  pop\n  swap3\n  swap1\n  pop\n  jump\t// out\n    /* \"Campaign.sol\":432:3216  contract Campaign{... */\ntag_6:\n  dataSize(sub_0)\n  dup1\n  dataOffset(sub_0)\n  0x00\n  codecopy\n  0x00\n  return\nstop\n\nsub_0: assembly {\n        /* \"Campaign.sol\":432:3216  contract Campaign{... */\n      mstore(0x40, 0x80)\n      jumpi(tag_1, lt(calldatasize, 0x04))\n      shr(0xe0, calldataload(0x00))\n      dup1\n      0x81d12c58\n      gt\n      tag_13\n      jumpi\n      dup1\n      0x81d12c58\n      eq\n      tag_7\n      jumpi\n      dup1\n      0x82fde093\n      eq\n      tag_8\n      jumpi\n      dup1\n      0x8a9cfd55\n      eq\n      tag_9\n      jumpi\n      dup1\n      0x937e09b1\n      eq\n      tag_10\n      jumpi\n      dup1\n      0xd7bb99ba\n      eq\n      tag_11\n      jumpi\n      dup1\n      0xd7d1bbdb\n      eq\n      tag_12\n      jumpi\n      jump(tag_1)\n    tag_13:\n      dup1\n      0x03441006\n      eq\n      tag_2\n      jumpi\n      dup1\n      0x0a144391\n      eq\n      tag_3\n      jumpi\n      dup1\n      0x3410452a\n      eq\n      tag_4\n      jumpi\n      dup1\n      0x4051ddac\n      eq\n      tag_5\n      jumpi\n      dup1\n      0x481c6a75\n      eq\n      tag_6\n      jumpi\n    tag_1:\n      0x00\n      dup1\n      revert\n        /* \"Campaign.sol\":2390:2775  function finalizeRequest(uint indexvalue) public restricted{... */\n    tag_2:\n      callvalue\n      dup1\n      iszero\n      tag_14\n      jumpi\n      0x00\n      dup1\n      revert\n    tag_14:\n      pop\n      tag_15\n      0x04\n      dup1\n      calldatasize\n      sub\n      dup2\n      add\n      swap1\n      tag_16\n      swap2\n      swap1\n      tag_17\n      jump\t// in\n    tag_16:\n      tag_18\n      jump\t// in\n    tag_15:\n      stop\n        /* \"Campaign.sol\":947:988  mapping(address => bool) public approvers */\n    tag_3:\n      callvalue\n      dup1\n      iszero\n      tag_19\n      jumpi\n      0x00\n      dup1\n      revert\n    tag_19:\n      pop\n      tag_20\n      0x04\n      dup1\n      calldatasize\n      sub\n      dup2\n      add\n      swap1\n      tag_21\n      swap2\n      swap1\n      tag_22\n      jump\t// in\n    tag_21:\n      tag_23\n      jump\t// in\n    tag_20:\n      mload(0x40)\n      tag_24\n      swap2\n      swap1\n      tag_25\n      jump\t// in\n    tag_24:\n      mload(0x40)\n      dup1\n      swap2\n      sub\n      swap1\n      return\n        /* \"Campaign.sol\":3037:3130  function getRequestsCount() public view returns (uint){... */\n    tag_4:\n      callvalue\n      dup1\n      iszero\n      tag_26\n      jumpi\n      0x00\n      dup1\n      revert\n    tag_26:\n      pop\n      tag_27\n      tag_28\n      jump\t// in\n    tag_27:\n      mload(0x40)\n      tag_29\n      swap2\n      swap1\n      tag_30\n      jump\t// in\n    tag_29:\n      mload(0x40)\n      dup1\n      swap2\n      sub\n      swap1\n      return\n        /* \"Campaign.sol\":2781:3031  function getSummary() public view returns (uint,uint,uint,uint,address){... */\n    tag_5:\n      callvalue\n      dup1\n      iszero\n      tag_31\n      jumpi\n      0x00\n      dup1\n      revert\n    tag_31:\n      pop\n      tag_32\n      tag_33\n      jump\t// in\n    tag_32:\n      mload(0x40)\n      tag_34\n      swap6\n      swap5\n      swap4\n      swap3\n      swap2\n      swap1\n      tag_35\n      jump\t// in\n    tag_34:\n      mload(0x40)\n      dup1\n      swap2\n      sub\n      swap1\n      return\n        /* \"Campaign.sol\":785:807  address public manager */\n    tag_6:\n      callvalue\n      dup1\n      iszero\n      tag_36\n      jumpi\n      0x00\n      dup1\n      revert\n    tag_36:\n      pop\n      tag_37\n      tag_38\n      jump\t// in\n    tag_37:\n      mload(0x40)\n      tag_39\n      swap2\n      swap1\n      tag_40\n      jump\t// in\n    tag_39:\n      mload(0x40)\n      dup1\n      swap2\n      sub\n      swap1\n      return\n        /* \"Campaign.sol\":753:778  Request[] public requests */\n    tag_7:\n      callvalue\n      dup1\n      iszero\n      tag_41\n      jumpi\n      0x00\n      dup1\n      revert\n    tag_41:\n      pop\n      tag_42\n      0x04\n      dup1\n      calldatasize\n      sub\n      dup2\n      add\n      swap1\n      tag_43\n      swap2\n      swap1\n      tag_17\n      jump\t// in\n    tag_43:\n      tag_44\n      jump\t// in\n    tag_42:\n      mload(0x40)\n      tag_45\n      swap6\n      swap5\n      swap4\n      swap3\n      swap2\n      swap1\n      tag_46\n      jump\t// in\n    tag_45:\n      mload(0x40)\n      dup1\n      swap2\n      sub\n      swap1\n      return\n        /* \"Campaign.sol\":994:1020  uint public approversCount */\n    tag_8:\n      callvalue\n      dup1\n      iszero\n      tag_47\n      jumpi\n      0x00\n      dup1\n      revert\n    tag_47:\n      pop\n      tag_48\n      tag_49\n      jump\t// in\n    tag_48:\n      mload(0x40)\n      tag_50\n      swap2\n      swap1\n      tag_30\n      jump\t// in\n    tag_50:\n      mload(0x40)\n      dup1\n      swap2\n      sub\n      swap1\n      return\n        /* \"Campaign.sol\":1512:2069  function createRequest(string memory description,uint value,address recipient) public restricted{... */\n    tag_9:\n      callvalue\n      dup1\n      iszero\n      tag_51\n      jumpi\n      0x00\n      dup1\n      revert\n    tag_51:\n      pop\n      tag_52\n      0x04\n      dup1\n      calldatasize\n      sub\n      dup2\n      add\n      swap1\n      tag_53\n      swap2\n      swap1\n      tag_54\n      jump\t// in\n    tag_53:\n      tag_55\n      jump\t// in\n    tag_52:\n      stop\n        /* \"Campaign.sol\":813:844  uint public minimumContribution */\n    tag_10:\n      callvalue\n      dup1\n      iszero\n      tag_56\n      jumpi\n      0x00\n      dup1\n      revert\n    tag_56:\n      pop\n      tag_57\n      tag_58\n      jump\t// in\n    tag_57:\n      mload(0x40)\n      tag_59\n      swap2\n      swap1\n      tag_30\n      jump\t// in\n    tag_59:\n      mload(0x40)\n      dup1\n      swap2\n      sub\n      swap1\n      return\n        /* \"Campaign.sol\":1234:1486  function contribute() public payable {//contribute = voted... */\n    tag_11:\n      tag_60\n      tag_61\n      jump\t// in\n    tag_60:\n      stop\n        /* \"Campaign.sol\":2076:2384  function approveRequest(uint indexvalue) public {... */\n    tag_12:\n      callvalue\n      dup1\n      iszero\n      tag_62\n      jumpi\n      0x00\n      dup1\n      revert\n    tag_62:\n      pop\n      tag_63\n      0x04\n      dup1\n      calldatasize\n      sub\n      dup2\n      add\n      swap1\n      tag_64\n      swap2\n      swap1\n      tag_17\n      jump\t// in\n    tag_64:\n      tag_65\n      jump\t// in\n    tag_63:\n      stop\n        /* \"Campaign.sol\":2390:2775  function finalizeRequest(uint indexvalue) public restricted{... */\n    tag_18:\n        /* \"Campaign.sol\":3188:3195  manager */\n      0x02\n      0x00\n      swap1\n      sload\n      swap1\n      0x0100\n      exp\n      swap1\n      div\n      0xffffffffffffffffffffffffffffffffffffffff\n      and\n        /* \"Campaign.sol\":3176:3195  msg.sender==manager */\n      0xffffffffffffffffffffffffffffffffffffffff\n      and\n        /* \"Campaign.sol\":3176:3186  msg.sender */\n      caller\n        /* \"Campaign.sol\":3176:3195  msg.sender==manager */\n      0xffffffffffffffffffffffffffffffffffffffff\n      and\n      eq\n        /* \"Campaign.sol\":3168:3196  require(msg.sender==manager) */\n      tag_67\n      jumpi\n      0x00\n      dup1\n      revert\n    tag_67:\n        /* \"Campaign.sol\":2522:2545  Request storage request */\n      0x00\n        /* \"Campaign.sol\":2548:2556  requests */\n      0x01\n        /* \"Campaign.sol\":2557:2567  indexvalue */\n      dup3\n        /* \"Campaign.sol\":2548:2568  requests[indexvalue] */\n      dup2\n      sload\n      dup2\n      lt\n      tag_69\n      jumpi\n      tag_70\n      tag_71\n      jump\t// in\n    tag_70:\n    tag_69:\n      swap1\n      0x00\n      mstore\n      keccak256(0x00, 0x20)\n      swap1\n      0x04\n      mul\n      add\n        /* \"Campaign.sol\":2522:2568  Request storage request = requests[indexvalue] */\n      swap1\n      pop\n        /* \"Campaign.sol\":2627:2628  2 */\n      0x02\n        /* \"Campaign.sol\":2612:2626  approversCount */\n      sload(0x05)\n        /* \"Campaign.sol\":2612:2628  approversCount/2 */\n      tag_73\n      swap2\n      swap1\n      tag_74\n      jump\t// in\n    tag_73:\n        /* \"Campaign.sol\":2587:2594  request */\n      dup2\n        /* \"Campaign.sol\":2587:2608  request.approvalCount */\n      0x03\n      add\n      sload\n        /* \"Campaign.sol\":2587:2629  request.approvalCount > (approversCount/2) */\n      gt\n        /* \"Campaign.sol\":2579:2630  require(request.approvalCount > (approversCount/2)) */\n      tag_75\n      jumpi\n      0x00\n      dup1\n      revert\n    tag_75:\n        /* \"Campaign.sol\":2649:2656  request */\n      dup1\n        /* \"Campaign.sol\":2649:2665  request.complete */\n      0x02\n      add\n      0x14\n      swap1\n      sload\n      swap1\n      0x0100\n      exp\n      swap1\n      div\n      0xff\n      and\n        /* \"Campaign.sol\":2648:2665  !request.complete */\n      iszero\n        /* \"Campaign.sol\":2640:2666  require(!request.complete) */\n      tag_76\n      jumpi\n      0x00\n      dup1\n      revert\n    tag_76:\n        /* \"Campaign.sol\":2693:2700  request */\n      dup1\n        /* \"Campaign.sol\":2693:2710  request.recipient */\n      0x02\n      add\n      0x00\n      swap1\n      sload\n      swap1\n      0x0100\n      exp\n      swap1\n      div\n      0xffffffffffffffffffffffffffffffffffffffff\n      and\n        /* \"Campaign.sol\":2685:2720  payable(request.recipient).transfer */\n      0xffffffffffffffffffffffffffffffffffffffff\n      and\n        /* \"Campaign.sol\":2685:2735  payable(request.recipient).transfer(request.value) */\n      0x08fc\n        /* \"Campaign.sol\":2721:2728  request */\n      dup3\n        /* \"Campaign.sol\":2721:2734  request.value */\n      0x01\n      add\n      sload\n        /* \"Campaign.sol\":2685:2735  payable(request.recipient).transfer(request.value) */\n      swap1\n      dup2\n      iszero\n      mul\n      swap1\n      mload(0x40)\n      0x00\n      mload(0x40)\n      dup1\n      dup4\n      sub\n      dup2\n      dup6\n      dup9\n      dup9\n      call\n      swap4\n      pop\n      pop\n      pop\n      pop\n      iszero\n      dup1\n      iszero\n      tag_78\n      jumpi\n      returndatasize\n      0x00\n      dup1\n      returndatacopy\n      revert(0x00, returndatasize)\n    tag_78:\n      pop\n        /* \"Campaign.sol\":2764:2768  true */\n      0x01\n        /* \"Campaign.sol\":2745:2752  request */\n      dup2\n        /* \"Campaign.sol\":2745:2761  request.complete */\n      0x02\n      add\n      0x14\n        /* \"Campaign.sol\":2745:2768  request.complete = true */\n      0x0100\n      exp\n      dup2\n      sload\n      dup2\n      0xff\n      mul\n      not\n      and\n      swap1\n      dup4\n      iszero\n      iszero\n      mul\n      or\n      swap1\n      sstore\n      pop\n        /* \"Campaign.sol\":2449:2775  {... */\n      pop\n        /* \"Campaign.sol\":2390:2775  function finalizeRequest(uint indexvalue) public restricted{... */\n      pop\n      jump\t// out\n        /* \"Campaign.sol\":947:988  mapping(address => bool) public approvers */\n    tag_23:\n      mstore(0x20, 0x04)\n      dup1\n      0x00\n      mstore\n      keccak256(0x00, 0x40)\n      0x00\n      swap2\n      pop\n      sload\n      swap1\n      0x0100\n      exp\n      swap1\n      div\n      0xff\n      and\n      dup2\n      jump\t// out\n        /* \"Campaign.sol\":3037:3130  function getRequestsCount() public view returns (uint){... */\n    tag_28:\n        /* \"Campaign.sol\":3086:3090  uint */\n      0x00\n        /* \"Campaign.sol\":3108:3116  requests */\n      0x01\n        /* \"Campaign.sol\":3108:3123  requests.length */\n      dup1\n      sload\n      swap1\n      pop\n        /* \"Campaign.sol\":3101:3123  return requests.length */\n      swap1\n      pop\n        /* \"Campaign.sol\":3037:3130  function getRequestsCount() public view returns (uint){... */\n      swap1\n      jump\t// out\n        /* \"Campaign.sol\":2781:3031  function getSummary() public view returns (uint,uint,uint,uint,address){... */\n    tag_33:\n        /* \"Campaign.sol\":2824:2828  uint */\n      0x00\n        /* \"Campaign.sol\":2829:2833  uint */\n      dup1\n        /* \"Campaign.sol\":2834:2838  uint */\n      0x00\n        /* \"Campaign.sol\":2839:2843  uint */\n      dup1\n        /* \"Campaign.sol\":2844:2851  address */\n      0x00\n        /* \"Campaign.sol\":2882:2901  minimumContribution */\n      sload(0x03)\n        /* \"Campaign.sol\":2915:2936  address(this).balance */\n      selfbalance\n        /* \"Campaign.sol\":2950:2958  requests */\n      0x01\n        /* \"Campaign.sol\":2950:2965  requests.length */\n      dup1\n      sload\n      swap1\n      pop\n        /* \"Campaign.sol\":2979:2993  approversCount */\n      sload(0x05)\n        /* \"Campaign.sol\":3007:3014  manager */\n      0x02\n      0x00\n      swap1\n      sload\n      swap1\n      0x0100\n      exp\n      swap1\n      div\n      0xffffffffffffffffffffffffffffffffffffffff\n      and\n        /* \"Campaign.sol\":2862:3024  return(... */\n      swap5\n      pop\n      swap5\n      pop\n      swap5\n      pop\n      swap5\n      pop\n      swap5\n      pop\n        /* \"Campaign.sol\":2781:3031  function getSummary() public view returns (uint,uint,uint,uint,address){... */\n      swap1\n      swap2\n      swap3\n      swap4\n      swap5\n      jump\t// out\n        /* \"Campaign.sol\":785:807  address public manager */\n    tag_38:\n      0x02\n      0x00\n      swap1\n      sload\n      swap1\n      0x0100\n      exp\n      swap1\n      div\n      0xffffffffffffffffffffffffffffffffffffffff\n      and\n      dup2\n      jump\t// out\n        /* \"Campaign.sol\":753:778  Request[] public requests */\n    tag_44:\n      0x01\n      dup2\n      dup2\n      sload\n      dup2\n      lt\n      tag_81\n      jumpi\n      0x00\n      dup1\n      revert\n    tag_81:\n      swap1\n      0x00\n      mstore\n      keccak256(0x00, 0x20)\n      swap1\n      0x04\n      mul\n      add\n      0x00\n      swap2\n      pop\n      swap1\n      pop\n      dup1\n      0x00\n      add\n      dup1\n      sload\n      tag_83\n      swap1\n      tag_84\n      jump\t// in\n    tag_83:\n      dup1\n      0x1f\n      add\n      0x20\n      dup1\n      swap2\n      div\n      mul\n      0x20\n      add\n      mload(0x40)\n      swap1\n      dup2\n      add\n      0x40\n      mstore\n      dup1\n      swap3\n      swap2\n      swap1\n      dup2\n      dup2\n      mstore\n      0x20\n      add\n      dup3\n      dup1\n      sload\n      tag_85\n      swap1\n      tag_84\n      jump\t// in\n    tag_85:\n      dup1\n      iszero\n      tag_86\n      jumpi\n      dup1\n      0x1f\n      lt\n      tag_87\n      jumpi\n      0x0100\n      dup1\n      dup4\n      sload\n      div\n      mul\n      dup4\n      mstore\n      swap2\n      0x20\n      add\n      swap2\n      jump(tag_86)\n    tag_87:\n      dup3\n      add\n      swap2\n      swap1\n      0x00\n      mstore\n      keccak256(0x00, 0x20)\n      swap1\n    tag_88:\n      dup2\n      sload\n      dup2\n      mstore\n      swap1\n      0x01\n      add\n      swap1\n      0x20\n      add\n      dup1\n      dup4\n      gt\n      tag_88\n      jumpi\n      dup3\n      swap1\n      sub\n      0x1f\n      and\n      dup3\n      add\n      swap2\n    tag_86:\n      pop\n      pop\n      pop\n      pop\n      pop\n      swap1\n      dup1\n      0x01\n      add\n      sload\n      swap1\n      dup1\n      0x02\n      add\n      0x00\n      swap1\n      sload\n      swap1\n      0x0100\n      exp\n      swap1\n      div\n      0xffffffffffffffffffffffffffffffffffffffff\n      and\n      swap1\n      dup1\n      0x02\n      add\n      0x14\n      swap1\n      sload\n      swap1\n      0x0100\n      exp\n      swap1\n      div\n      0xff\n      and\n      swap1\n      dup1\n      0x03\n      add\n      sload\n      swap1\n      pop\n      dup6\n      jump\t// out\n        /* \"Campaign.sol\":994:1020  uint public approversCount */\n    tag_49:\n      sload(0x05)\n      dup2\n      jump\t// out\n        /* \"Campaign.sol\":1512:2069  function createRequest(string memory description,uint value,address recipient) public restricted{... */\n    tag_55:\n        /* \"Campaign.sol\":3188:3195  manager */\n      0x02\n      0x00\n      swap1\n      sload\n      swap1\n      0x0100\n      exp\n      swap1\n      div\n      0xffffffffffffffffffffffffffffffffffffffff\n      and\n        /* \"Campaign.sol\":3176:3195  msg.sender==manager */\n      0xffffffffffffffffffffffffffffffffffffffff\n      and\n        /* \"Campaign.sol\":3176:3186  msg.sender */\n      caller\n        /* \"Campaign.sol\":3176:3195  msg.sender==manager */\n      0xffffffffffffffffffffffffffffffffffffffff\n      and\n      eq\n        /* \"Campaign.sol\":3168:3196  require(msg.sender==manager) */\n      tag_90\n      jumpi\n      0x00\n      dup1\n      revert\n    tag_90:\n        /* \"Campaign.sol\":1660:1685  Request memory newRequest */\n      0x00\n        /* \"Campaign.sol\":1688:1859  Request({... */\n      mload(0x40)\n      dup1\n      0xa0\n      add\n      0x40\n      mstore\n      dup1\n        /* \"Campaign.sol\":1722:1733  description */\n      dup6\n        /* \"Campaign.sol\":1688:1859  Request({... */\n      dup2\n      mstore\n      0x20\n      add\n        /* \"Campaign.sol\":1753:1758  value */\n      dup5\n        /* \"Campaign.sol\":1688:1859  Request({... */\n      dup2\n      mstore\n      0x20\n      add\n        /* \"Campaign.sol\":1782:1791  recipient */\n      dup4\n        /* \"Campaign.sol\":1688:1859  Request({... */\n      0xffffffffffffffffffffffffffffffffffffffff\n      and\n      dup2\n      mstore\n      0x20\n      add\n        /* \"Campaign.sol\":1814:1819  false */\n      0x00\n        /* \"Campaign.sol\":1688:1859  Request({... */\n      iszero\n      iszero\n      dup2\n      mstore\n      0x20\n      add\n        /* \"Campaign.sol\":1847:1848  0 */\n      0x00\n        /* \"Campaign.sol\":1688:1859  Request({... */\n      dup2\n      mstore\n      pop\n        /* \"Campaign.sol\":1660:1859  Request memory newRequest = Request({... */\n      swap1\n      pop\n        /* \"Campaign.sol\":1975:1983  requests */\n      0x01\n        /* \"Campaign.sol\":1989:1999  newRequest */\n      dup2\n        /* \"Campaign.sol\":1975:2000  requests.push(newRequest) */\n      swap1\n      dup1\n      0x01\n      dup2\n      sload\n      add\n      dup1\n      dup3\n      sstore\n      dup1\n      swap2\n      pop\n      pop\n      0x01\n      swap1\n      sub\n      swap1\n      0x00\n      mstore\n      keccak256(0x00, 0x20)\n      swap1\n      0x04\n      mul\n      add\n      0x00\n      swap1\n      swap2\n      swap1\n      swap2\n      swap1\n      swap2\n      pop\n      0x00\n      dup3\n      add\n      mload\n      dup2\n      0x00\n      add\n      swap1\n      dup1\n      mload\n      swap1\n      0x20\n      add\n      swap1\n      tag_93\n      swap3\n      swap2\n      swap1\n      tag_94\n      jump\t// in\n    tag_93:\n      pop\n      0x20\n      dup3\n      add\n      mload\n      dup2\n      0x01\n      add\n      sstore\n      0x40\n      dup3\n      add\n      mload\n      dup2\n      0x02\n      add\n      exp(0x0100, 0x00)\n      dup2\n      sload\n      dup2\n      0xffffffffffffffffffffffffffffffffffffffff\n      mul\n      not\n      and\n      swap1\n      dup4\n      0xffffffffffffffffffffffffffffffffffffffff\n      and\n      mul\n      or\n      swap1\n      sstore\n      pop\n      0x60\n      dup3\n      add\n      mload\n      dup2\n      0x02\n      add\n      exp(0x0100, 0x14)\n      dup2\n      sload\n      dup2\n      0xff\n      mul\n      not\n      and\n      swap1\n      dup4\n      iszero\n      iszero\n      mul\n      or\n      swap1\n      sstore\n      pop\n      0x80\n      dup3\n      add\n      mload\n      dup2\n      0x03\n      add\n      sstore\n      pop\n      pop\n        /* \"Campaign.sol\":1608:2069  {... */\n      pop\n        /* \"Campaign.sol\":1512:2069  function createRequest(string memory description,uint value,address recipient) public restricted{... */\n      pop\n      pop\n      pop\n      jump\t// out\n        /* \"Campaign.sol\":813:844  uint public minimumContribution */\n    tag_58:\n      sload(0x03)\n      dup2\n      jump\t// out\n        /* \"Campaign.sol\":1234:1486  function contribute() public payable {//contribute = voted... */\n    tag_61:\n        /* \"Campaign.sol\":1321:1340  minimumContribution */\n      sload(0x03)\n        /* \"Campaign.sol\":1309:1318  msg.value */\n      callvalue\n        /* \"Campaign.sol\":1309:1340  msg.value > minimumContribution */\n      gt\n        /* \"Campaign.sol\":1301:1341  require(msg.value > minimumContribution) */\n      tag_96\n      jumpi\n      0x00\n      dup1\n      revert\n    tag_96:\n        /* \"Campaign.sol\":1375:1379  true */\n      0x01\n        /* \"Campaign.sol\":1351:1360  approvers */\n      0x04\n        /* \"Campaign.sol\":1351:1372  approvers[msg.sender] */\n      0x00\n        /* \"Campaign.sol\":1361:1371  msg.sender */\n      caller\n        /* \"Campaign.sol\":1351:1372  approvers[msg.sender] */\n      0xffffffffffffffffffffffffffffffffffffffff\n      and\n      0xffffffffffffffffffffffffffffffffffffffff\n      and\n      dup2\n      mstore\n      0x20\n      add\n      swap1\n      dup2\n      mstore\n      0x20\n      add\n      0x00\n      keccak256\n      0x00\n        /* \"Campaign.sol\":1351:1379  approvers[msg.sender] = true */\n      0x0100\n      exp\n      dup2\n      sload\n      dup2\n      0xff\n      mul\n      not\n      and\n      swap1\n      dup4\n      iszero\n      iszero\n      mul\n      or\n      swap1\n      sstore\n      pop\n        /* \"Campaign.sol\":1389:1403  approversCount */\n      0x05\n      0x00\n        /* \"Campaign.sol\":1389:1405  approversCount++ */\n      dup2\n      sload\n      dup1\n      swap3\n      swap2\n      swap1\n      tag_97\n      swap1\n      tag_98\n      jump\t// in\n    tag_97:\n      swap2\n      swap1\n      pop\n      sstore\n      pop\n        /* \"Campaign.sol\":1234:1486  function contribute() public payable {//contribute = voted... */\n      jump\t// out\n        /* \"Campaign.sol\":2076:2384  function approveRequest(uint indexvalue) public {... */\n    tag_65:\n        /* \"Campaign.sol\":2134:2157  Request storage request */\n      0x00\n        /* \"Campaign.sol\":2160:2168  requests */\n      0x01\n        /* \"Campaign.sol\":2169:2179  indexvalue */\n      dup3\n        /* \"Campaign.sol\":2160:2180  requests[indexvalue] */\n      dup2\n      sload\n      dup2\n      lt\n      tag_100\n      jumpi\n      tag_101\n      tag_71\n      jump\t// in\n    tag_101:\n    tag_100:\n      swap1\n      0x00\n      mstore\n      keccak256(0x00, 0x20)\n      swap1\n      0x04\n      mul\n      add\n        /* \"Campaign.sol\":2134:2180  Request storage request = requests[indexvalue] */\n      swap1\n      pop\n        /* \"Campaign.sol\":2199:2208  approvers */\n      0x04\n        /* \"Campaign.sol\":2199:2220  approvers[msg.sender] */\n      0x00\n        /* \"Campaign.sol\":2209:2219  msg.sender */\n      caller\n        /* \"Campaign.sol\":2199:2220  approvers[msg.sender] */\n      0xffffffffffffffffffffffffffffffffffffffff\n      and\n      0xffffffffffffffffffffffffffffffffffffffff\n      and\n      dup2\n      mstore\n      0x20\n      add\n      swap1\n      dup2\n      mstore\n      0x20\n      add\n      0x00\n      keccak256\n      0x00\n      swap1\n      sload\n      swap1\n      0x0100\n      exp\n      swap1\n      div\n      0xff\n      and\n        /* \"Campaign.sol\":2191:2221  require(approvers[msg.sender]) */\n      tag_103\n      jumpi\n      0x00\n      dup1\n      revert\n    tag_103:\n        /* \"Campaign.sol\":2261:2270  approvals */\n      0x00\n        /* \"Campaign.sol\":2261:2282  approvals[msg.sender] */\n      dup1\n        /* \"Campaign.sol\":2271:2281  msg.sender */\n      caller\n        /* \"Campaign.sol\":2261:2282  approvals[msg.sender] */\n      0xffffffffffffffffffffffffffffffffffffffff\n      and\n      0xffffffffffffffffffffffffffffffffffffffff\n      and\n      dup2\n      mstore\n      0x20\n      add\n      swap1\n      dup2\n      mstore\n      0x20\n      add\n      0x00\n      keccak256\n      0x00\n      swap1\n      sload\n      swap1\n      0x0100\n      exp\n      swap1\n      div\n      0xff\n      and\n        /* \"Campaign.sol\":2260:2282  !approvals[msg.sender] */\n      iszero\n        /* \"Campaign.sol\":2252:2283  require(!approvals[msg.sender]) */\n      tag_104\n      jumpi\n      0x00\n      dup1\n      revert\n    tag_104:\n        /* \"Campaign.sol\":2336:2340  true */\n      0x01\n        /* \"Campaign.sol\":2312:2321  approvals */\n      0x00\n        /* \"Campaign.sol\":2312:2333  approvals[msg.sender] */\n      dup1\n        /* \"Campaign.sol\":2322:2332  msg.sender */\n      caller\n        /* \"Campaign.sol\":2312:2333  approvals[msg.sender] */\n      0xffffffffffffffffffffffffffffffffffffffff\n      and\n      0xffffffffffffffffffffffffffffffffffffffff\n      and\n      dup2\n      mstore\n      0x20\n      add\n      swap1\n      dup2\n      mstore\n      0x20\n      add\n      0x00\n      keccak256\n      0x00\n        /* \"Campaign.sol\":2312:2340  approvals[msg.sender] = true */\n      0x0100\n      exp\n      dup2\n      sload\n      dup2\n      0xff\n      mul\n      not\n      and\n      swap1\n      dup4\n      iszero\n      iszero\n      mul\n      or\n      swap1\n      sstore\n      pop\n        /* \"Campaign.sol\":2350:2357  request */\n      dup1\n        /* \"Campaign.sol\":2350:2371  request.approvalCount */\n      0x03\n      add\n      0x00\n        /* \"Campaign.sol\":2350:2373  request.approvalCount++ */\n      dup2\n      sload\n      dup1\n      swap3\n      swap2\n      swap1\n      tag_105\n      swap1\n      tag_98\n      jump\t// in\n    tag_105:\n      swap2\n      swap1\n      pop\n      sstore\n      pop\n        /* \"Campaign.sol\":2124:2384  {... */\n      pop\n        /* \"Campaign.sol\":2076:2384  function approveRequest(uint indexvalue) public {... */\n      pop\n      jump\t// out\n    tag_94:\n      dup3\n      dup1\n      sload\n      tag_106\n      swap1\n      tag_84\n      jump\t// in\n    tag_106:\n      swap1\n      0x00\n      mstore\n      keccak256(0x00, 0x20)\n      swap1\n      0x1f\n      add\n      0x20\n      swap1\n      div\n      dup2\n      add\n      swap3\n      dup3\n      tag_108\n      jumpi\n      0x00\n      dup6\n      sstore\n      jump(tag_107)\n    tag_108:\n      dup3\n      0x1f\n      lt\n      tag_109\n      jumpi\n      dup1\n      mload\n      not(0xff)\n      and\n      dup4\n      dup1\n      add\n      or\n      dup6\n      sstore\n      jump(tag_107)\n    tag_109:\n      dup3\n      dup1\n      add\n      0x01\n      add\n      dup6\n      sstore\n      dup3\n      iszero\n      tag_107\n      jumpi\n      swap2\n      dup3\n      add\n    tag_110:\n      dup3\n      dup2\n      gt\n      iszero\n      tag_111\n      jumpi\n      dup3\n      mload\n      dup3\n      sstore\n      swap2\n      0x20\n      add\n      swap2\n      swap1\n      0x01\n      add\n      swap1\n      jump(tag_110)\n    tag_111:\n    tag_107:\n      pop\n      swap1\n      pop\n      tag_112\n      swap2\n      swap1\n      tag_113\n      jump\t// in\n    tag_112:\n      pop\n      swap1\n      jump\t// out\n    tag_113:\n    tag_114:\n      dup1\n      dup3\n      gt\n      iszero\n      tag_115\n      jumpi\n      0x00\n      dup2\n      0x00\n      swap1\n      sstore\n      pop\n      0x01\n      add\n      jump(tag_114)\n    tag_115:\n      pop\n      swap1\n      jump\t// out\n        /* \"#utility.yul\":7:82   */\n    tag_116:\n        /* \"#utility.yul\":40:46   */\n      0x00\n        /* \"#utility.yul\":73:75   */\n      0x40\n        /* \"#utility.yul\":67:76   */\n      mload\n        /* \"#utility.yul\":57:76   */\n      swap1\n      pop\n        /* \"#utility.yul\":7:82   */\n      swap1\n      jump\t// out\n        /* \"#utility.yul\":88:205   */\n    tag_117:\n        /* \"#utility.yul\":197:198   */\n      0x00\n        /* \"#utility.yul\":194:195   */\n      dup1\n        /* \"#utility.yul\":187:199   */\n      revert\n        /* \"#utility.yul\":211:328   */\n    tag_118:\n        /* \"#utility.yul\":320:321   */\n      0x00\n        /* \"#utility.yul\":317:318   */\n      dup1\n        /* \"#utility.yul\":310:322   */\n      revert\n        /* \"#utility.yul\":334:411   */\n    tag_119:\n        /* \"#utility.yul\":371:378   */\n      0x00\n        /* \"#utility.yul\":400:405   */\n      dup2\n        /* \"#utility.yul\":389:405   */\n      swap1\n      pop\n        /* \"#utility.yul\":334:411   */\n      swap2\n      swap1\n      pop\n      jump\t// out\n        /* \"#utility.yul\":417:539   */\n    tag_120:\n        /* \"#utility.yul\":490:514   */\n      tag_153\n        /* \"#utility.yul\":508:513   */\n      dup2\n        /* \"#utility.yul\":490:514   */\n      tag_119\n      jump\t// in\n    tag_153:\n        /* \"#utility.yul\":483:488   */\n      dup2\n        /* \"#utility.yul\":480:515   */\n      eq\n        /* \"#utility.yul\":470:533   */\n      tag_154\n      jumpi\n        /* \"#utility.yul\":529:530   */\n      0x00\n        /* \"#utility.yul\":526:527   */\n      dup1\n        /* \"#utility.yul\":519:531   */\n      revert\n        /* \"#utility.yul\":470:533   */\n    tag_154:\n        /* \"#utility.yul\":417:539   */\n      pop\n      jump\t// out\n        /* \"#utility.yul\":545:684   */\n    tag_121:\n        /* \"#utility.yul\":591:596   */\n      0x00\n        /* \"#utility.yul\":629:635   */\n      dup2\n        /* \"#utility.yul\":616:636   */\n      calldataload\n        /* \"#utility.yul\":607:636   */\n      swap1\n      pop\n        /* \"#utility.yul\":645:678   */\n      tag_156\n        /* \"#utility.yul\":672:677   */\n      dup2\n        /* \"#utility.yul\":645:678   */\n      tag_120\n      jump\t// in\n    tag_156:\n        /* \"#utility.yul\":545:684   */\n      swap3\n      swap2\n      pop\n      pop\n      jump\t// out\n        /* \"#utility.yul\":690:1019   */\n    tag_17:\n        /* \"#utility.yul\":749:755   */\n      0x00\n        /* \"#utility.yul\":798:800   */\n      0x20\n        /* \"#utility.yul\":786:795   */\n      dup3\n        /* \"#utility.yul\":777:784   */\n      dup5\n        /* \"#utility.yul\":773:796   */\n      sub\n        /* \"#utility.yul\":769:801   */\n      slt\n        /* \"#utility.yul\":766:885   */\n      iszero\n      tag_158\n      jumpi\n        /* \"#utility.yul\":804:883   */\n      tag_159\n      tag_117\n      jump\t// in\n    tag_159:\n        /* \"#utility.yul\":766:885   */\n    tag_158:\n        /* \"#utility.yul\":924:925   */\n      0x00\n        /* \"#utility.yul\":949:1002   */\n      tag_160\n        /* \"#utility.yul\":994:1001   */\n      dup5\n        /* \"#utility.yul\":985:991   */\n      dup3\n        /* \"#utility.yul\":974:983   */\n      dup6\n        /* \"#utility.yul\":970:992   */\n      add\n        /* \"#utility.yul\":949:1002   */\n      tag_121\n      jump\t// in\n    tag_160:\n        /* \"#utility.yul\":939:1002   */\n      swap2\n      pop\n        /* \"#utility.yul\":895:1012   */\n      pop\n        /* \"#utility.yul\":690:1019   */\n      swap3\n      swap2\n      pop\n      pop\n      jump\t// out\n        /* \"#utility.yul\":1025:1151   */\n    tag_122:\n        /* \"#utility.yul\":1062:1069   */\n      0x00\n        /* \"#utility.yul\":1102:1144   */\n      0xffffffffffffffffffffffffffffffffffffffff\n        /* \"#utility.yul\":1095:1100   */\n      dup3\n        /* \"#utility.yul\":1091:1145   */\n      and\n        /* \"#utility.yul\":1080:1145   */\n      swap1\n      pop\n        /* \"#utility.yul\":1025:1151   */\n      swap2\n      swap1\n      pop\n      jump\t// out\n        /* \"#utility.yul\":1157:1253   */\n    tag_123:\n        /* \"#utility.yul\":1194:1201   */\n      0x00\n        /* \"#utility.yul\":1223:1247   */\n      tag_163\n        /* \"#utility.yul\":1241:1246   */\n      dup3\n        /* \"#utility.yul\":1223:1247   */\n      tag_122\n      jump\t// in\n    tag_163:\n        /* \"#utility.yul\":1212:1247   */\n      swap1\n      pop\n        /* \"#utility.yul\":1157:1253   */\n      swap2\n      swap1\n      pop\n      jump\t// out\n        /* \"#utility.yul\":1259:1381   */\n    tag_124:\n        /* \"#utility.yul\":1332:1356   */\n      tag_165\n        /* \"#utility.yul\":1350:1355   */\n      dup2\n        /* \"#utility.yul\":1332:1356   */\n      tag_123\n      jump\t// in\n    tag_165:\n        /* \"#utility.yul\":1325:1330   */\n      dup2\n        /* \"#utility.yul\":1322:1357   */\n      eq\n        /* \"#utility.yul\":1312:1375   */\n      tag_166\n      jumpi\n        /* \"#utility.yul\":1371:1372   */\n      0x00\n        /* \"#utility.yul\":1368:1369   */\n      dup1\n        /* \"#utility.yul\":1361:1373   */\n      revert\n        /* \"#utility.yul\":1312:1375   */\n    tag_166:\n        /* \"#utility.yul\":1259:1381   */\n      pop\n      jump\t// out\n        /* \"#utility.yul\":1387:1526   */\n    tag_125:\n        /* \"#utility.yul\":1433:1438   */\n      0x00\n        /* \"#utility.yul\":1471:1477   */\n      dup2\n        /* \"#utility.yul\":1458:1478   */\n      calldataload\n        /* \"#utility.yul\":1449:1478   */\n      swap1\n      pop\n        /* \"#utility.yul\":1487:1520   */\n      tag_168\n        /* \"#utility.yul\":1514:1519   */\n      dup2\n        /* \"#utility.yul\":1487:1520   */\n      tag_124\n      jump\t// in\n    tag_168:\n        /* \"#utility.yul\":1387:1526   */\n      swap3\n      swap2\n      pop\n      pop\n      jump\t// out\n        /* \"#utility.yul\":1532:1861   */\n    tag_22:\n        /* \"#utility.yul\":1591:1597   */\n      0x00\n        /* \"#utility.yul\":1640:1642   */\n      0x20\n        /* \"#utility.yul\":1628:1637   */\n      dup3\n        /* \"#utility.yul\":1619:1626   */\n      dup5\n        /* \"#utility.yul\":1615:1638   */\n      sub\n        /* \"#utility.yul\":1611:1643   */\n      slt\n        /* \"#utility.yul\":1608:1727   */\n      iszero\n      tag_170\n      jumpi\n        /* \"#utility.yul\":1646:1725   */\n      tag_171\n      tag_117\n      jump\t// in\n    tag_171:\n        /* \"#utility.yul\":1608:1727   */\n    tag_170:\n        /* \"#utility.yul\":1766:1767   */\n      0x00\n        /* \"#utility.yul\":1791:1844   */\n      tag_172\n        /* \"#utility.yul\":1836:1843   */\n      dup5\n        /* \"#utility.yul\":1827:1833   */\n      dup3\n        /* \"#utility.yul\":1816:1825   */\n      dup6\n        /* \"#utility.yul\":1812:1834   */\n      add\n        /* \"#utility.yul\":1791:1844   */\n      tag_125\n      jump\t// in\n    tag_172:\n        /* \"#utility.yul\":1781:1844   */\n      swap2\n      pop\n        /* \"#utility.yul\":1737:1854   */\n      pop\n        /* \"#utility.yul\":1532:1861   */\n      swap3\n      swap2\n      pop\n      pop\n      jump\t// out\n        /* \"#utility.yul\":1867:1957   */\n    tag_126:\n        /* \"#utility.yul\":1901:1908   */\n      0x00\n        /* \"#utility.yul\":1944:1949   */\n      dup2\n        /* \"#utility.yul\":1937:1950   */\n      iszero\n        /* \"#utility.yul\":1930:1951   */\n      iszero\n        /* \"#utility.yul\":1919:1951   */\n      swap1\n      pop\n        /* \"#utility.yul\":1867:1957   */\n      swap2\n      swap1\n      pop\n      jump\t// out\n        /* \"#utility.yul\":1963:2072   */\n    tag_127:\n        /* \"#utility.yul\":2044:2065   */\n      tag_175\n        /* \"#utility.yul\":2059:2064   */\n      dup2\n        /* \"#utility.yul\":2044:2065   */\n      tag_126\n      jump\t// in\n    tag_175:\n        /* \"#utility.yul\":2039:2042   */\n      dup3\n        /* \"#utility.yul\":2032:2066   */\n      mstore\n        /* \"#utility.yul\":1963:2072   */\n      pop\n      pop\n      jump\t// out\n        /* \"#utility.yul\":2078:2288   */\n    tag_25:\n        /* \"#utility.yul\":2165:2169   */\n      0x00\n        /* \"#utility.yul\":2203:2205   */\n      0x20\n        /* \"#utility.yul\":2192:2201   */\n      dup3\n        /* \"#utility.yul\":2188:2206   */\n      add\n        /* \"#utility.yul\":2180:2206   */\n      swap1\n      pop\n        /* \"#utility.yul\":2216:2281   */\n      tag_177\n        /* \"#utility.yul\":2278:2279   */\n      0x00\n        /* \"#utility.yul\":2267:2276   */\n      dup4\n        /* \"#utility.yul\":2263:2280   */\n      add\n        /* \"#utility.yul\":2254:2260   */\n      dup5\n        /* \"#utility.yul\":2216:2281   */\n      tag_127\n      jump\t// in\n    tag_177:\n        /* \"#utility.yul\":2078:2288   */\n      swap3\n      swap2\n      pop\n      pop\n      jump\t// out\n        /* \"#utility.yul\":2294:2412   */\n    tag_128:\n        /* \"#utility.yul\":2381:2405   */\n      tag_179\n        /* \"#utility.yul\":2399:2404   */\n      dup2\n        /* \"#utility.yul\":2381:2405   */\n      tag_119\n      jump\t// in\n    tag_179:\n        /* \"#utility.yul\":2376:2379   */\n      dup3\n        /* \"#utility.yul\":2369:2406   */\n      mstore\n        /* \"#utility.yul\":2294:2412   */\n      pop\n      pop\n      jump\t// out\n        /* \"#utility.yul\":2418:2640   */\n    tag_30:\n        /* \"#utility.yul\":2511:2515   */\n      0x00\n        /* \"#utility.yul\":2549:2551   */\n      0x20\n        /* \"#utility.yul\":2538:2547   */\n      dup3\n        /* \"#utility.yul\":2534:2552   */\n      add\n        /* \"#utility.yul\":2526:2552   */\n      swap1\n      pop\n        /* \"#utility.yul\":2562:2633   */\n      tag_181\n        /* \"#utility.yul\":2630:2631   */\n      0x00\n        /* \"#utility.yul\":2619:2628   */\n      dup4\n        /* \"#utility.yul\":2615:2632   */\n      add\n        /* \"#utility.yul\":2606:2612   */\n      dup5\n        /* \"#utility.yul\":2562:2633   */\n      tag_128\n      jump\t// in\n    tag_181:\n        /* \"#utility.yul\":2418:2640   */\n      swap3\n      swap2\n      pop\n      pop\n      jump\t// out\n        /* \"#utility.yul\":2646:2764   */\n    tag_129:\n        /* \"#utility.yul\":2733:2757   */\n      tag_183\n        /* \"#utility.yul\":2751:2756   */\n      dup2\n        /* \"#utility.yul\":2733:2757   */\n      tag_123\n      jump\t// in\n    tag_183:\n        /* \"#utility.yul\":2728:2731   */\n      dup3\n        /* \"#utility.yul\":2721:2758   */\n      mstore\n        /* \"#utility.yul\":2646:2764   */\n      pop\n      pop\n      jump\t// out\n        /* \"#utility.yul\":2770:3434   */\n    tag_35:\n        /* \"#utility.yul\":2975:2979   */\n      0x00\n        /* \"#utility.yul\":3013:3016   */\n      0xa0\n        /* \"#utility.yul\":3002:3011   */\n      dup3\n        /* \"#utility.yul\":2998:3017   */\n      add\n        /* \"#utility.yul\":2990:3017   */\n      swap1\n      pop\n        /* \"#utility.yul\":3027:3098   */\n      tag_185\n        /* \"#utility.yul\":3095:3096   */\n      0x00\n        /* \"#utility.yul\":3084:3093   */\n      dup4\n        /* \"#utility.yul\":3080:3097   */\n      add\n        /* \"#utility.yul\":3071:3077   */\n      dup9\n        /* \"#utility.yul\":3027:3098   */\n      tag_128\n      jump\t// in\n    tag_185:\n        /* \"#utility.yul\":3108:3180   */\n      tag_186\n        /* \"#utility.yul\":3176:3178   */\n      0x20\n        /* \"#utility.yul\":3165:3174   */\n      dup4\n        /* \"#utility.yul\":3161:3179   */\n      add\n        /* \"#utility.yul\":3152:3158   */\n      dup8\n        /* \"#utility.yul\":3108:3180   */\n      tag_128\n      jump\t// in\n    tag_186:\n        /* \"#utility.yul\":3190:3262   */\n      tag_187\n        /* \"#utility.yul\":3258:3260   */\n      0x40\n        /* \"#utility.yul\":3247:3256   */\n      dup4\n        /* \"#utility.yul\":3243:3261   */\n      add\n        /* \"#utility.yul\":3234:3240   */\n      dup7\n        /* \"#utility.yul\":3190:3262   */\n      tag_128\n      jump\t// in\n    tag_187:\n        /* \"#utility.yul\":3272:3344   */\n      tag_188\n        /* \"#utility.yul\":3340:3342   */\n      0x60\n        /* \"#utility.yul\":3329:3338   */\n      dup4\n        /* \"#utility.yul\":3325:3343   */\n      add\n        /* \"#utility.yul\":3316:3322   */\n      dup6\n        /* \"#utility.yul\":3272:3344   */\n      tag_128\n      jump\t// in\n    tag_188:\n        /* \"#utility.yul\":3354:3427   */\n      tag_189\n        /* \"#utility.yul\":3422:3425   */\n      0x80\n        /* \"#utility.yul\":3411:3420   */\n      dup4\n        /* \"#utility.yul\":3407:3426   */\n      add\n        /* \"#utility.yul\":3398:3404   */\n      dup5\n        /* \"#utility.yul\":3354:3427   */\n      tag_129\n      jump\t// in\n    tag_189:\n        /* \"#utility.yul\":2770:3434   */\n      swap7\n      swap6\n      pop\n      pop\n      pop\n      pop\n      pop\n      pop\n      jump\t// out\n        /* \"#utility.yul\":3440:3662   */\n    tag_40:\n        /* \"#utility.yul\":3533:3537   */\n      0x00\n        /* \"#utility.yul\":3571:3573   */\n      0x20\n        /* \"#utility.yul\":3560:3569   */\n      dup3\n        /* \"#utility.yul\":3556:3574   */\n      add\n        /* \"#utility.yul\":3548:3574   */\n      swap1\n      pop\n        /* \"#utility.yul\":3584:3655   */\n      tag_191\n        /* \"#utility.yul\":3652:3653   */\n      0x00\n        /* \"#utility.yul\":3641:3650   */\n      dup4\n        /* \"#utility.yul\":3637:3654   */\n      add\n        /* \"#utility.yul\":3628:3634   */\n      dup5\n        /* \"#utility.yul\":3584:3655   */\n      tag_129\n      jump\t// in\n    tag_191:\n        /* \"#utility.yul\":3440:3662   */\n      swap3\n      swap2\n      pop\n      pop\n      jump\t// out\n        /* \"#utility.yul\":3668:3767   */\n    tag_130:\n        /* \"#utility.yul\":3720:3726   */\n      0x00\n        /* \"#utility.yul\":3754:3759   */\n      dup2\n        /* \"#utility.yul\":3748:3760   */\n      mload\n        /* \"#utility.yul\":3738:3760   */\n      swap1\n      pop\n        /* \"#utility.yul\":3668:3767   */\n      swap2\n      swap1\n      pop\n      jump\t// out\n        /* \"#utility.yul\":3773:3942   */\n    tag_131:\n        /* \"#utility.yul\":3857:3868   */\n      0x00\n        /* \"#utility.yul\":3891:3897   */\n      dup3\n        /* \"#utility.yul\":3886:3889   */\n      dup3\n        /* \"#utility.yul\":3879:3898   */\n      mstore\n        /* \"#utility.yul\":3931:3935   */\n      0x20\n        /* \"#utility.yul\":3926:3929   */\n      dup3\n        /* \"#utility.yul\":3922:3936   */\n      add\n        /* \"#utility.yul\":3907:3936   */\n      swap1\n      pop\n        /* \"#utility.yul\":3773:3942   */\n      swap3\n      swap2\n      pop\n      pop\n      jump\t// out\n        /* \"#utility.yul\":3948:4255   */\n    tag_132:\n        /* \"#utility.yul\":4016:4017   */\n      0x00\n        /* \"#utility.yul\":4026:4139   */\n    tag_195:\n        /* \"#utility.yul\":4040:4046   */\n      dup4\n        /* \"#utility.yul\":4037:4038   */\n      dup2\n        /* \"#utility.yul\":4034:4047   */\n      lt\n        /* \"#utility.yul\":4026:4139   */\n      iszero\n      tag_197\n      jumpi\n        /* \"#utility.yul\":4125:4126   */\n      dup1\n        /* \"#utility.yul\":4120:4123   */\n      dup3\n        /* \"#utility.yul\":4116:4127   */\n      add\n        /* \"#utility.yul\":4110:4128   */\n      mload\n        /* \"#utility.yul\":4106:4107   */\n      dup2\n        /* \"#utility.yul\":4101:4104   */\n      dup5\n        /* \"#utility.yul\":4097:4108   */\n      add\n        /* \"#utility.yul\":4090:4129   */\n      mstore\n        /* \"#utility.yul\":4062:4064   */\n      0x20\n        /* \"#utility.yul\":4059:4060   */\n      dup2\n        /* \"#utility.yul\":4055:4065   */\n      add\n        /* \"#utility.yul\":4050:4065   */\n      swap1\n      pop\n        /* \"#utility.yul\":4026:4139   */\n      jump(tag_195)\n    tag_197:\n        /* \"#utility.yul\":4157:4163   */\n      dup4\n        /* \"#utility.yul\":4154:4155   */\n      dup2\n        /* \"#utility.yul\":4151:4164   */\n      gt\n        /* \"#utility.yul\":4148:4249   */\n      iszero\n      tag_198\n      jumpi\n        /* \"#utility.yul\":4237:4238   */\n      0x00\n        /* \"#utility.yul\":4228:4234   */\n      dup5\n        /* \"#utility.yul\":4223:4226   */\n      dup5\n        /* \"#utility.yul\":4219:4235   */\n      add\n        /* \"#utility.yul\":4212:4239   */\n      mstore\n        /* \"#utility.yul\":4148:4249   */\n    tag_198:\n        /* \"#utility.yul\":3997:4255   */\n      pop\n        /* \"#utility.yul\":3948:4255   */\n      pop\n      pop\n      pop\n      jump\t// out\n        /* \"#utility.yul\":4261:4363   */\n    tag_133:\n        /* \"#utility.yul\":4302:4308   */\n      0x00\n        /* \"#utility.yul\":4353:4355   */\n      0x1f\n        /* \"#utility.yul\":4349:4356   */\n      not\n        /* \"#utility.yul\":4344:4346   */\n      0x1f\n        /* \"#utility.yul\":4337:4342   */\n      dup4\n        /* \"#utility.yul\":4333:4347   */\n      add\n        /* \"#utility.yul\":4329:4357   */\n      and\n        /* \"#utility.yul\":4319:4357   */\n      swap1\n      pop\n        /* \"#utility.yul\":4261:4363   */\n      swap2\n      swap1\n      pop\n      jump\t// out\n        /* \"#utility.yul\":4369:4733   */\n    tag_134:\n        /* \"#utility.yul\":4457:4460   */\n      0x00\n        /* \"#utility.yul\":4485:4524   */\n      tag_201\n        /* \"#utility.yul\":4518:4523   */\n      dup3\n        /* \"#utility.yul\":4485:4524   */\n      tag_130\n      jump\t// in\n    tag_201:\n        /* \"#utility.yul\":4540:4611   */\n      tag_202\n        /* \"#utility.yul\":4604:4610   */\n      dup2\n        /* \"#utility.yul\":4599:4602   */\n      dup6\n        /* \"#utility.yul\":4540:4611   */\n      tag_131\n      jump\t// in\n    tag_202:\n        /* \"#utility.yul\":4533:4611   */\n      swap4\n      pop\n        /* \"#utility.yul\":4620:4672   */\n      tag_203\n        /* \"#utility.yul\":4665:4671   */\n      dup2\n        /* \"#utility.yul\":4660:4663   */\n      dup6\n        /* \"#utility.yul\":4653:4657   */\n      0x20\n        /* \"#utility.yul\":4646:4651   */\n      dup7\n        /* \"#utility.yul\":4642:4658   */\n      add\n        /* \"#utility.yul\":4620:4672   */\n      tag_132\n      jump\t// in\n    tag_203:\n        /* \"#utility.yul\":4697:4726   */\n      tag_204\n        /* \"#utility.yul\":4719:4725   */\n      dup2\n        /* \"#utility.yul\":4697:4726   */\n      tag_133\n      jump\t// in\n    tag_204:\n        /* \"#utility.yul\":4692:4695   */\n      dup5\n        /* \"#utility.yul\":4688:4727   */\n      add\n        /* \"#utility.yul\":4681:4727   */\n      swap2\n      pop\n        /* \"#utility.yul\":4461:4733   */\n      pop\n        /* \"#utility.yul\":4369:4733   */\n      swap3\n      swap2\n      pop\n      pop\n      jump\t// out\n        /* \"#utility.yul\":4739:5482   */\n    tag_46:\n        /* \"#utility.yul\":4958:4962   */\n      0x00\n        /* \"#utility.yul\":4996:4999   */\n      0xa0\n        /* \"#utility.yul\":4985:4994   */\n      dup3\n        /* \"#utility.yul\":4981:5000   */\n      add\n        /* \"#utility.yul\":4973:5000   */\n      swap1\n      pop\n        /* \"#utility.yul\":5046:5055   */\n      dup2\n        /* \"#utility.yul\":5040:5044   */\n      dup2\n        /* \"#utility.yul\":5036:5056   */\n      sub\n        /* \"#utility.yul\":5032:5033   */\n      0x00\n        /* \"#utility.yul\":5021:5030   */\n      dup4\n        /* \"#utility.yul\":5017:5034   */\n      add\n        /* \"#utility.yul\":5010:5057   */\n      mstore\n        /* \"#utility.yul\":5074:5152   */\n      tag_206\n        /* \"#utility.yul\":5147:5151   */\n      dup2\n        /* \"#utility.yul\":5138:5144   */\n      dup9\n        /* \"#utility.yul\":5074:5152   */\n      tag_134\n      jump\t// in\n    tag_206:\n        /* \"#utility.yul\":5066:5152   */\n      swap1\n      pop\n        /* \"#utility.yul\":5162:5234   */\n      tag_207\n        /* \"#utility.yul\":5230:5232   */\n      0x20\n        /* \"#utility.yul\":5219:5228   */\n      dup4\n        /* \"#utility.yul\":5215:5233   */\n      add\n        /* \"#utility.yul\":5206:5212   */\n      dup8\n        /* \"#utility.yul\":5162:5234   */\n      tag_128\n      jump\t// in\n    tag_207:\n        /* \"#utility.yul\":5244:5316   */\n      tag_208\n        /* \"#utility.yul\":5312:5314   */\n      0x40\n        /* \"#utility.yul\":5301:5310   */\n      dup4\n        /* \"#utility.yul\":5297:5315   */\n      add\n        /* \"#utility.yul\":5288:5294   */\n      dup7\n        /* \"#utility.yul\":5244:5316   */\n      tag_129\n      jump\t// in\n    tag_208:\n        /* \"#utility.yul\":5326:5392   */\n      tag_209\n        /* \"#utility.yul\":5388:5390   */\n      0x60\n        /* \"#utility.yul\":5377:5386   */\n      dup4\n        /* \"#utility.yul\":5373:5391   */\n      add\n        /* \"#utility.yul\":5364:5370   */\n      dup6\n        /* \"#utility.yul\":5326:5392   */\n      tag_127\n      jump\t// in\n    tag_209:\n        /* \"#utility.yul\":5402:5475   */\n      tag_210\n        /* \"#utility.yul\":5470:5473   */\n      0x80\n        /* \"#utility.yul\":5459:5468   */\n      dup4\n        /* \"#utility.yul\":5455:5474   */\n      add\n        /* \"#utility.yul\":5446:5452   */\n      dup5\n        /* \"#utility.yul\":5402:5475   */\n      tag_128\n      jump\t// in\n    tag_210:\n        /* \"#utility.yul\":4739:5482   */\n      swap7\n      swap6\n      pop\n      pop\n      pop\n      pop\n      pop\n      pop\n      jump\t// out\n        /* \"#utility.yul\":5488:5605   */\n    tag_135:\n        /* \"#utility.yul\":5597:5598   */\n      0x00\n        /* \"#utility.yul\":5594:5595   */\n      dup1\n        /* \"#utility.yul\":5587:5599   */\n      revert\n        /* \"#utility.yul\":5611:5728   */\n    tag_136:\n        /* \"#utility.yul\":5720:5721   */\n      0x00\n        /* \"#utility.yul\":5717:5718   */\n      dup1\n        /* \"#utility.yul\":5710:5722   */\n      revert\n        /* \"#utility.yul\":5734:5914   */\n    tag_137:\n        /* \"#utility.yul\":5782:5859   */\n      0x4e487b7100000000000000000000000000000000000000000000000000000000\n        /* \"#utility.yul\":5779:5780   */\n      0x00\n        /* \"#utility.yul\":5772:5860   */\n      mstore\n        /* \"#utility.yul\":5879:5883   */\n      0x41\n        /* \"#utility.yul\":5876:5877   */\n      0x04\n        /* \"#utility.yul\":5869:5884   */\n      mstore\n        /* \"#utility.yul\":5903:5907   */\n      0x24\n        /* \"#utility.yul\":5900:5901   */\n      0x00\n        /* \"#utility.yul\":5893:5908   */\n      revert\n        /* \"#utility.yul\":5920:6201   */\n    tag_138:\n        /* \"#utility.yul\":6003:6030   */\n      tag_215\n        /* \"#utility.yul\":6025:6029   */\n      dup3\n        /* \"#utility.yul\":6003:6030   */\n      tag_133\n      jump\t// in\n    tag_215:\n        /* \"#utility.yul\":5995:6001   */\n      dup2\n        /* \"#utility.yul\":5991:6031   */\n      add\n        /* \"#utility.yul\":6133:6139   */\n      dup2\n        /* \"#utility.yul\":6121:6131   */\n      dup2\n        /* \"#utility.yul\":6118:6140   */\n      lt\n        /* \"#utility.yul\":6097:6115   */\n      0xffffffffffffffff\n        /* \"#utility.yul\":6085:6095   */\n      dup3\n        /* \"#utility.yul\":6082:6116   */\n      gt\n        /* \"#utility.yul\":6079:6141   */\n      or\n        /* \"#utility.yul\":6076:6164   */\n      iszero\n      tag_216\n      jumpi\n        /* \"#utility.yul\":6144:6162   */\n      tag_217\n      tag_137\n      jump\t// in\n    tag_217:\n        /* \"#utility.yul\":6076:6164   */\n    tag_216:\n        /* \"#utility.yul\":6184:6194   */\n      dup1\n        /* \"#utility.yul\":6180:6182   */\n      0x40\n        /* \"#utility.yul\":6173:6195   */\n      mstore\n        /* \"#utility.yul\":5963:6201   */\n      pop\n        /* \"#utility.yul\":5920:6201   */\n      pop\n      pop\n      jump\t// out\n        /* \"#utility.yul\":6207:6336   */\n    tag_139:\n        /* \"#utility.yul\":6241:6247   */\n      0x00\n        /* \"#utility.yul\":6268:6288   */\n      tag_219\n      tag_116\n      jump\t// in\n    tag_219:\n        /* \"#utility.yul\":6258:6288   */\n      swap1\n      pop\n        /* \"#utility.yul\":6297:6330   */\n      tag_220\n        /* \"#utility.yul\":6325:6329   */\n      dup3\n        /* \"#utility.yul\":6317:6323   */\n      dup3\n        /* \"#utility.yul\":6297:6330   */\n      tag_138\n      jump\t// in\n    tag_220:\n        /* \"#utility.yul\":6207:6336   */\n      swap2\n      swap1\n      pop\n      jump\t// out\n        /* \"#utility.yul\":6342:6650   */\n    tag_140:\n        /* \"#utility.yul\":6404:6408   */\n      0x00\n        /* \"#utility.yul\":6494:6512   */\n      0xffffffffffffffff\n        /* \"#utility.yul\":6486:6492   */\n      dup3\n        /* \"#utility.yul\":6483:6513   */\n      gt\n        /* \"#utility.yul\":6480:6536   */\n      iszero\n      tag_222\n      jumpi\n        /* \"#utility.yul\":6516:6534   */\n      tag_223\n      tag_137\n      jump\t// in\n    tag_223:\n        /* \"#utility.yul\":6480:6536   */\n    tag_222:\n        /* \"#utility.yul\":6554:6583   */\n      tag_224\n        /* \"#utility.yul\":6576:6582   */\n      dup3\n        /* \"#utility.yul\":6554:6583   */\n      tag_133\n      jump\t// in\n    tag_224:\n        /* \"#utility.yul\":6546:6583   */\n      swap1\n      pop\n        /* \"#utility.yul\":6638:6642   */\n      0x20\n        /* \"#utility.yul\":6632:6636   */\n      dup2\n        /* \"#utility.yul\":6628:6643   */\n      add\n        /* \"#utility.yul\":6620:6643   */\n      swap1\n      pop\n        /* \"#utility.yul\":6342:6650   */\n      swap2\n      swap1\n      pop\n      jump\t// out\n        /* \"#utility.yul\":6656:6810   */\n    tag_141:\n        /* \"#utility.yul\":6740:6746   */\n      dup3\n        /* \"#utility.yul\":6735:6738   */\n      dup2\n        /* \"#utility.yul\":6730:6733   */\n      dup4\n        /* \"#utility.yul\":6717:6747   */\n      calldatacopy\n        /* \"#utility.yul\":6802:6803   */\n      0x00\n        /* \"#utility.yul\":6793:6799   */\n      dup4\n        /* \"#utility.yul\":6788:6791   */\n      dup4\n        /* \"#utility.yul\":6784:6800   */\n      add\n        /* \"#utility.yul\":6777:6804   */\n      mstore\n        /* \"#utility.yul\":6656:6810   */\n      pop\n      pop\n      pop\n      jump\t// out\n        /* \"#utility.yul\":6816:7228   */\n    tag_142:\n        /* \"#utility.yul\":6894:6899   */\n      0x00\n        /* \"#utility.yul\":6919:6985   */\n      tag_227\n        /* \"#utility.yul\":6935:6984   */\n      tag_228\n        /* \"#utility.yul\":6977:6983   */\n      dup5\n        /* \"#utility.yul\":6935:6984   */\n      tag_140\n      jump\t// in\n    tag_228:\n        /* \"#utility.yul\":6919:6985   */\n      tag_139\n      jump\t// in\n    tag_227:\n        /* \"#utility.yul\":6910:6985   */\n      swap1\n      pop\n        /* \"#utility.yul\":7008:7014   */\n      dup3\n        /* \"#utility.yul\":7001:7006   */\n      dup2\n        /* \"#utility.yul\":6994:7015   */\n      mstore\n        /* \"#utility.yul\":7046:7050   */\n      0x20\n        /* \"#utility.yul\":7039:7044   */\n      dup2\n        /* \"#utility.yul\":7035:7051   */\n      add\n        /* \"#utility.yul\":7084:7087   */\n      dup5\n        /* \"#utility.yul\":7075:7081   */\n      dup5\n        /* \"#utility.yul\":7070:7073   */\n      dup5\n        /* \"#utility.yul\":7066:7082   */\n      add\n        /* \"#utility.yul\":7063:7088   */\n      gt\n        /* \"#utility.yul\":7060:7172   */\n      iszero\n      tag_229\n      jumpi\n        /* \"#utility.yul\":7091:7170   */\n      tag_230\n      tag_136\n      jump\t// in\n    tag_230:\n        /* \"#utility.yul\":7060:7172   */\n    tag_229:\n        /* \"#utility.yul\":7181:7222   */\n      tag_231\n        /* \"#utility.yul\":7215:7221   */\n      dup5\n        /* \"#utility.yul\":7210:7213   */\n      dup3\n        /* \"#utility.yul\":7205:7208   */\n      dup6\n        /* \"#utility.yul\":7181:7222   */\n      tag_141\n      jump\t// in\n    tag_231:\n        /* \"#utility.yul\":6900:7228   */\n      pop\n        /* \"#utility.yul\":6816:7228   */\n      swap4\n      swap3\n      pop\n      pop\n      pop\n      jump\t// out\n        /* \"#utility.yul\":7248:7588   */\n    tag_143:\n        /* \"#utility.yul\":7304:7309   */\n      0x00\n        /* \"#utility.yul\":7353:7356   */\n      dup3\n        /* \"#utility.yul\":7346:7350   */\n      0x1f\n        /* \"#utility.yul\":7338:7344   */\n      dup4\n        /* \"#utility.yul\":7334:7351   */\n      add\n        /* \"#utility.yul\":7330:7357   */\n      slt\n        /* \"#utility.yul\":7320:7442   */\n      tag_233\n      jumpi\n        /* \"#utility.yul\":7361:7440   */\n      tag_234\n      tag_135\n      jump\t// in\n    tag_234:\n        /* \"#utility.yul\":7320:7442   */\n    tag_233:\n        /* \"#utility.yul\":7478:7484   */\n      dup2\n        /* \"#utility.yul\":7465:7485   */\n      calldataload\n        /* \"#utility.yul\":7503:7582   */\n      tag_235\n        /* \"#utility.yul\":7578:7581   */\n      dup5\n        /* \"#utility.yul\":7570:7576   */\n      dup3\n        /* \"#utility.yul\":7563:7567   */\n      0x20\n        /* \"#utility.yul\":7555:7561   */\n      dup7\n        /* \"#utility.yul\":7551:7568   */\n      add\n        /* \"#utility.yul\":7503:7582   */\n      tag_142\n      jump\t// in\n    tag_235:\n        /* \"#utility.yul\":7494:7582   */\n      swap2\n      pop\n        /* \"#utility.yul\":7310:7588   */\n      pop\n        /* \"#utility.yul\":7248:7588   */\n      swap3\n      swap2\n      pop\n      pop\n      jump\t// out\n        /* \"#utility.yul\":7594:8393   */\n    tag_54:\n        /* \"#utility.yul\":7681:7687   */\n      0x00\n        /* \"#utility.yul\":7689:7695   */\n      dup1\n        /* \"#utility.yul\":7697:7703   */\n      0x00\n        /* \"#utility.yul\":7746:7748   */\n      0x60\n        /* \"#utility.yul\":7734:7743   */\n      dup5\n        /* \"#utility.yul\":7725:7732   */\n      dup7\n        /* \"#utility.yul\":7721:7744   */\n      sub\n        /* \"#utility.yul\":7717:7749   */\n      slt\n        /* \"#utility.yul\":7714:7833   */\n      iszero\n      tag_237\n      jumpi\n        /* \"#utility.yul\":7752:7831   */\n      tag_238\n      tag_117\n      jump\t// in\n    tag_238:\n        /* \"#utility.yul\":7714:7833   */\n    tag_237:\n        /* \"#utility.yul\":7900:7901   */\n      0x00\n        /* \"#utility.yul\":7889:7898   */\n      dup5\n        /* \"#utility.yul\":7885:7902   */\n      add\n        /* \"#utility.yul\":7872:7903   */\n      calldataload\n        /* \"#utility.yul\":7930:7948   */\n      0xffffffffffffffff\n        /* \"#utility.yul\":7922:7928   */\n      dup2\n        /* \"#utility.yul\":7919:7949   */\n      gt\n        /* \"#utility.yul\":7916:8033   */\n      iszero\n      tag_239\n      jumpi\n        /* \"#utility.yul\":7952:8031   */\n      tag_240\n      tag_118\n      jump\t// in\n    tag_240:\n        /* \"#utility.yul\":7916:8033   */\n    tag_239:\n        /* \"#utility.yul\":8057:8120   */\n      tag_241\n        /* \"#utility.yul\":8112:8119   */\n      dup7\n        /* \"#utility.yul\":8103:8109   */\n      dup3\n        /* \"#utility.yul\":8092:8101   */\n      dup8\n        /* \"#utility.yul\":8088:8110   */\n      add\n        /* \"#utility.yul\":8057:8120   */\n      tag_143\n      jump\t// in\n    tag_241:\n        /* \"#utility.yul\":8047:8120   */\n      swap4\n      pop\n        /* \"#utility.yul\":7843:8130   */\n      pop\n        /* \"#utility.yul\":8169:8171   */\n      0x20\n        /* \"#utility.yul\":8195:8248   */\n      tag_242\n        /* \"#utility.yul\":8240:8247   */\n      dup7\n        /* \"#utility.yul\":8231:8237   */\n      dup3\n        /* \"#utility.yul\":8220:8229   */\n      dup8\n        /* \"#utility.yul\":8216:8238   */\n      add\n        /* \"#utility.yul\":8195:8248   */\n      tag_121\n      jump\t// in\n    tag_242:\n        /* \"#utility.yul\":8185:8248   */\n      swap3\n      pop\n        /* \"#utility.yul\":8140:8258   */\n      pop\n        /* \"#utility.yul\":8297:8299   */\n      0x40\n        /* \"#utility.yul\":8323:8376   */\n      tag_243\n        /* \"#utility.yul\":8368:8375   */\n      dup7\n        /* \"#utility.yul\":8359:8365   */\n      dup3\n        /* \"#utility.yul\":8348:8357   */\n      dup8\n        /* \"#utility.yul\":8344:8366   */\n      add\n        /* \"#utility.yul\":8323:8376   */\n      tag_125\n      jump\t// in\n    tag_243:\n        /* \"#utility.yul\":8313:8376   */\n      swap2\n      pop\n        /* \"#utility.yul\":8268:8386   */\n      pop\n        /* \"#utility.yul\":7594:8393   */\n      swap3\n      pop\n      swap3\n      pop\n      swap3\n      jump\t// out\n        /* \"#utility.yul\":8399:8579   */\n    tag_71:\n        /* \"#utility.yul\":8447:8524   */\n      0x4e487b7100000000000000000000000000000000000000000000000000000000\n        /* \"#utility.yul\":8444:8445   */\n      0x00\n        /* \"#utility.yul\":8437:8525   */\n      mstore\n        /* \"#utility.yul\":8544:8548   */\n      0x32\n        /* \"#utility.yul\":8541:8542   */\n      0x04\n        /* \"#utility.yul\":8534:8549   */\n      mstore\n        /* \"#utility.yul\":8568:8572   */\n      0x24\n        /* \"#utility.yul\":8565:8566   */\n      0x00\n        /* \"#utility.yul\":8558:8573   */\n      revert\n        /* \"#utility.yul\":8585:8765   */\n    tag_144:\n        /* \"#utility.yul\":8633:8710   */\n      0x4e487b7100000000000000000000000000000000000000000000000000000000\n        /* \"#utility.yul\":8630:8631   */\n      0x00\n        /* \"#utility.yul\":8623:8711   */\n      mstore\n        /* \"#utility.yul\":8730:8734   */\n      0x12\n        /* \"#utility.yul\":8727:8728   */\n      0x04\n        /* \"#utility.yul\":8720:8735   */\n      mstore\n        /* \"#utility.yul\":8754:8758   */\n      0x24\n        /* \"#utility.yul\":8751:8752   */\n      0x00\n        /* \"#utility.yul\":8744:8759   */\n      revert\n        /* \"#utility.yul\":8771:8951   */\n    tag_145:\n        /* \"#utility.yul\":8819:8896   */\n      0x4e487b7100000000000000000000000000000000000000000000000000000000\n        /* \"#utility.yul\":8816:8817   */\n      0x00\n        /* \"#utility.yul\":8809:8897   */\n      mstore\n        /* \"#utility.yul\":8916:8920   */\n      0x11\n        /* \"#utility.yul\":8913:8914   */\n      0x04\n        /* \"#utility.yul\":8906:8921   */\n      mstore\n        /* \"#utility.yul\":8940:8944   */\n      0x24\n        /* \"#utility.yul\":8937:8938   */\n      0x00\n        /* \"#utility.yul\":8930:8945   */\n      revert\n        /* \"#utility.yul\":8957:9142   */\n    tag_74:\n        /* \"#utility.yul\":8997:8998   */\n      0x00\n        /* \"#utility.yul\":9014:9034   */\n      tag_248\n        /* \"#utility.yul\":9032:9033   */\n      dup3\n        /* \"#utility.yul\":9014:9034   */\n      tag_119\n      jump\t// in\n    tag_248:\n        /* \"#utility.yul\":9009:9034   */\n      swap2\n      pop\n        /* \"#utility.yul\":9048:9068   */\n      tag_249\n        /* \"#utility.yul\":9066:9067   */\n      dup4\n        /* \"#utility.yul\":9048:9068   */\n      tag_119\n      jump\t// in\n    tag_249:\n        /* \"#utility.yul\":9043:9068   */\n      swap3\n      pop\n        /* \"#utility.yul\":9087:9088   */\n      dup3\n        /* \"#utility.yul\":9077:9112   */\n      tag_250\n      jumpi\n        /* \"#utility.yul\":9092:9110   */\n      tag_251\n      tag_144\n      jump\t// in\n    tag_251:\n        /* \"#utility.yul\":9077:9112   */\n    tag_250:\n        /* \"#utility.yul\":9134:9135   */\n      dup3\n        /* \"#utility.yul\":9131:9132   */\n      dup3\n        /* \"#utility.yul\":9127:9136   */\n      div\n        /* \"#utility.yul\":9122:9136   */\n      swap1\n      pop\n        /* \"#utility.yul\":8957:9142   */\n      swap3\n      swap2\n      pop\n      pop\n      jump\t// out\n        /* \"#utility.yul\":9148:9328   */\n    tag_146:\n        /* \"#utility.yul\":9196:9273   */\n      0x4e487b7100000000000000000000000000000000000000000000000000000000\n        /* \"#utility.yul\":9193:9194   */\n      0x00\n        /* \"#utility.yul\":9186:9274   */\n      mstore\n        /* \"#utility.yul\":9293:9297   */\n      0x22\n        /* \"#utility.yul\":9290:9291   */\n      0x04\n        /* \"#utility.yul\":9283:9298   */\n      mstore\n        /* \"#utility.yul\":9317:9321   */\n      0x24\n        /* \"#utility.yul\":9314:9315   */\n      0x00\n        /* \"#utility.yul\":9307:9322   */\n      revert\n        /* \"#utility.yul\":9334:9654   */\n    tag_84:\n        /* \"#utility.yul\":9378:9384   */\n      0x00\n        /* \"#utility.yul\":9415:9416   */\n      0x02\n        /* \"#utility.yul\":9409:9413   */\n      dup3\n        /* \"#utility.yul\":9405:9417   */\n      div\n        /* \"#utility.yul\":9395:9417   */\n      swap1\n      pop\n        /* \"#utility.yul\":9462:9463   */\n      0x01\n        /* \"#utility.yul\":9456:9460   */\n      dup3\n        /* \"#utility.yul\":9452:9464   */\n      and\n        /* \"#utility.yul\":9483:9501   */\n      dup1\n        /* \"#utility.yul\":9473:9554   */\n      tag_254\n      jumpi\n        /* \"#utility.yul\":9539:9543   */\n      0x7f\n        /* \"#utility.yul\":9531:9537   */\n      dup3\n        /* \"#utility.yul\":9527:9544   */\n      and\n        /* \"#utility.yul\":9517:9544   */\n      swap2\n      pop\n        /* \"#utility.yul\":9473:9554   */\n    tag_254:\n        /* \"#utility.yul\":9601:9603   */\n      0x20\n        /* \"#utility.yul\":9593:9599   */\n      dup3\n        /* \"#utility.yul\":9590:9604   */\n      lt\n        /* \"#utility.yul\":9570:9588   */\n      dup2\n        /* \"#utility.yul\":9567:9605   */\n      eq\n        /* \"#utility.yul\":9564:9648   */\n      iszero\n      tag_255\n      jumpi\n        /* \"#utility.yul\":9620:9638   */\n      tag_256\n      tag_146\n      jump\t// in\n    tag_256:\n        /* \"#utility.yul\":9564:9648   */\n    tag_255:\n        /* \"#utility.yul\":9385:9654   */\n      pop\n        /* \"#utility.yul\":9334:9654   */\n      swap2\n      swap1\n      pop\n      jump\t// out\n        /* \"#utility.yul\":9660:9893   */\n    tag_98:\n        /* \"#utility.yul\":9699:9702   */\n      0x00\n        /* \"#utility.yul\":9722:9746   */\n      tag_258\n        /* \"#utility.yul\":9740:9745   */\n      dup3\n        /* \"#utility.yul\":9722:9746   */\n      tag_119\n      jump\t// in\n    tag_258:\n        /* \"#utility.yul\":9713:9746   */\n      swap2\n      pop\n        /* \"#utility.yul\":9768:9834   */\n      0xffffffffffffffffffffffffffffffffffffffffffffffffffffffffffffffff\n        /* \"#utility.yul\":9761:9766   */\n      dup3\n        /* \"#utility.yul\":9758:9835   */\n      eq\n        /* \"#utility.yul\":9755:9858   */\n      iszero\n      tag_259\n      jumpi\n        /* \"#utility.yul\":9838:9856   */\n      tag_260\n      tag_145\n      jump\t// in\n    tag_260:\n        /* \"#utility.yul\":9755:9858   */\n    tag_259:\n        /* \"#utility.yul\":9885:9886   */\n      0x01\n        /* \"#utility.yul\":9878:9883   */\n      dup3\n        /* \"#utility.yul\":9874:9887   */\n      add\n        /* \"#utility.yul\":9867:9887   */\n      swap1\n      pop\n        /* \"#utility.yul\":9660:9893   */\n      swap2\n      swap1\n      pop\n      jump\t// out\n\n    auxdata: 0xa2646970667358221220452d0bc43c3a4ccb2697bda9c7bf8dd20b688371ae86244ee2ea4d7f5b9b344c64736f6c63430008090033\n}\n","bytecode":{"linkReferences":{},"object":"60806040523480156200001157600080fd5b50604051620010d8380380620010d883398181016040528101906200003791906200012c565b80600260006101000a81548173ffffffffffffffffffffffffffffffffffffffff021916908373ffffffffffffffffffffffffffffffffffffffff16021790555081600381905550505062000173565b600080fd5b6000819050919050565b620000a1816200008c565b8114620000ad57600080fd5b50565b600081519050620000c18162000096565b92915050565b600073ffffffffffffffffffffffffffffffffffffffff82169050919050565b6000620000f482620000c7565b9050919050565b6200010681620000e7565b81146200011257600080fd5b50565b6000815190506200012681620000fb565b92915050565b6000806040838503121562000146576200014562000087565b5b60006200015685828601620000b0565b9250506020620001698582860162000115565b9150509250929050565b610f5580620001836000396000f3fe60806040526004361061009c5760003560e01c806381d12c581161006457806381d12c581461018c57806382fde093146101cd5780638a9cfd55146101f8578063937e09b114610221578063d7bb99ba1461024c578063d7d1bbdb146102565761009c565b806303441006146100a15780630a144391146100ca5780633410452a146101075780634051ddac14610132578063481c6a7514610161575b600080fd5b3480156100ad57600080fd5b506100c860048036038101906100c3919061098b565b61027f565b005b3480156100d657600080fd5b506100f160048036038101906100ec9190610a16565b6103c9565b6040516100fe9190610a5e565b60405180910390f35b34801561011357600080fd5b5061011c6103e9565b6040516101299190610a88565b60405180910390f35b34801561013e57600080fd5b506101476103f6565b604051610158959493929190610ab2565b60405180910390f35b34801561016d57600080fd5b5061017661043f565b6040516101839190610b05565b60405180910390f35b34801561019857600080fd5b506101b360048036038101906101ae919061098b565b610465565b6040516101c4959493929190610bb9565b60405180910390f35b3480156101d957600080fd5b506101e2610560565b6040516101ef9190610a88565b60405180910390f35b34801561020457600080fd5b5061021f600480360381019061021a9190610d48565b610566565b005b34801561022d57600080fd5b506102366106d1565b6040516102439190610a88565b60405180910390f35b6102546106d7565b005b34801561026257600080fd5b5061027d6004803603810190610278919061098b565b610757565b005b600260009054906101000a900473ffffffffffffffffffffffffffffffffffffffff1673ffffffffffffffffffffffffffffffffffffffff163373ffffffffffffffffffffffffffffffffffffffff16146102d957600080fd5b6000600182815481106102ef576102ee610db7565b5b90600052602060002090600402019050600260055461030e9190610e44565b81600301541161031d57600080fd5b8060020160149054906101000a900460ff161561033957600080fd5b8060020160009054906101000a900473ffffffffffffffffffffffffffffffffffffffff1673ffffffffffffffffffffffffffffffffffffffff166108fc82600101549081150290604051600060405180830381858888f193505050501580156103a7573d6000803e3d6000fd5b5060018160020160146101000a81548160ff0219169083151502179055505050565b60046020528060005260406000206000915054906101000a900460ff1681565b6000600180549050905090565b600080600080600060035447600180549050600554600260009054906101000a900473ffffffffffffffffffffffffffffffffffffffff16945094509450945094509091929394565b600260009054906101000a900473ffffffffffffffffffffffffffffffffffffffff1681565b6001818154811061047557600080fd5b906000526020600020906004020160009150905080600001805461049890610ea4565b80601f01602080910402602001604051908101604052809291908181526020018280546104c490610ea4565b80156105115780601f106104e657610100808354040283529160200191610511565b820191906000526020600020905b8154815290600101906020018083116104f457829003601f168201915b5050505050908060010154908060020160009054906101000a900473ffffffffffffffffffffffffffffffffffffffff16908060020160149054906101000a900460ff16908060030154905085565b60055481565b600260009054906101000a900473ffffffffffffffffffffffffffffffffffffffff1673ffffffffffffffffffffffffffffffffffffffff163373ffffffffffffffffffffffffffffffffffffffff16146105c057600080fd5b60006040518060a001604052808581526020018481526020018373ffffffffffffffffffffffffffffffffffffffff168152602001600015158152602001600081525090506001819080600181540180825580915050600190039060005260206000209060040201600090919091909150600082015181600001908051906020019061064d92919061089e565b506020820151816001015560408201518160020160006101000a81548173ffffffffffffffffffffffffffffffffffffffff021916908373ffffffffffffffffffffffffffffffffffffffff16021790555060608201518160020160146101000a81548160ff02191690831515021790555060808201518160030155505050505050565b60035481565b60035434116106e557600080fd5b6001600460003373ffffffffffffffffffffffffffffffffffffffff1673ffffffffffffffffffffffffffffffffffffffff16815260200190815260200160002060006101000a81548160ff0219169083151502179055506005600081548092919061075090610ed6565b9190505550565b60006001828154811061076d5761076c610db7565b5b90600052602060002090600402019050600460003373ffffffffffffffffffffffffffffffffffffffff1673ffffffffffffffffffffffffffffffffffffffff16815260200190815260200160002060009054906101000a900460ff166107d357600080fd5b6000803373ffffffffffffffffffffffffffffffffffffffff1673ffffffffffffffffffffffffffffffffffffffff16815260200190815260200160002060009054906101000a900460ff161561082957600080fd5b60016000803373ffffffffffffffffffffffffffffffffffffffff1673ffffffffffffffffffffffffffffffffffffffff16815260200190815260200160002060006101000a81548160ff02191690831515021790555080600301600081548092919061089590610ed6565b91905055505050565b8280546108aa90610ea4565b90600052602060002090601f0160209004810192826108cc5760008555610913565b82601f106108e557805160ff1916838001178555610913565b82800160010185558215610913579182015b828111156109125782518255916020019190600101906108f7565b5b5090506109209190610924565b5090565b5b8082111561093d576000816000905550600101610925565b5090565b6000604051905090565b600080fd5b600080fd5b6000819050919050565b61096881610955565b811461097357600080fd5b50565b6000813590506109858161095f565b92915050565b6000602082840312156109a1576109a061094b565b5b60006109af84828501610976565b91505092915050565b600073ffffffffffffffffffffffffffffffffffffffff82169050919050565b60006109e3826109b8565b9050919050565b6109f3816109d8565b81146109fe57600080fd5b50565b600081359050610a10816109ea565b92915050565b600060208284031215610a2c57610a2b61094b565b5b6000610a3a84828501610a01565b91505092915050565b60008115159050919050565b610a5881610a43565b82525050565b6000602082019050610a736000830184610a4f565b92915050565b610a8281610955565b82525050565b6000602082019050610a9d6000830184610a79565b92915050565b610aac816109d8565b82525050565b600060a082019050610ac76000830188610a79565b610ad46020830187610a79565b610ae16040830186610a79565b610aee6060830185610a79565b610afb6080830184610aa3565b9695505050505050565b6000602082019050610b1a6000830184610aa3565b92915050565b600081519050919050565b600082825260208201905092915050565b60005b83811015610b5a578082015181840152602081019050610b3f565b83811115610b69576000848401525b50505050565b6000601f19601f8301169050919050565b6000610b8b82610b20565b610b958185610b2b565b9350610ba5818560208601610b3c565b610bae81610b6f565b840191505092915050565b600060a0820190508181036000830152610bd38188610b80565b9050610be26020830187610a79565b610bef6040830186610aa3565b610bfc6060830185610a4f565b610c096080830184610a79565b9695505050505050565b600080fd5b600080fd5b7f4e487b7100000000000000000000000000000000000000000000000000000000600052604160045260246000fd5b610c5582610b6f565b810181811067ffffffffffffffff82111715610c7457610c73610c1d565b5b80604052505050565b6000610c87610941565b9050610c938282610c4c565b919050565b600067ffffffffffffffff821115610cb357610cb2610c1d565b5b610cbc82610b6f565b9050602081019050919050565b82818337600083830152505050565b6000610ceb610ce684610c98565b610c7d565b905082815260208101848484011115610d0757610d06610c18565b5b610d12848285610cc9565b509392505050565b600082601f830112610d2f57610d2e610c13565b5b8135610d3f848260208601610cd8565b91505092915050565b600080600060608486031215610d6157610d6061094b565b5b600084013567ffffffffffffffff811115610d7f57610d7e610950565b5b610d8b86828701610d1a565b9350506020610d9c86828701610976565b9250506040610dad86828701610a01565b9150509250925092565b7f4e487b7100000000000000000000000000000000000000000000000000000000600052603260045260246000fd5b7f4e487b7100000000000000000000000000000000000000000000000000000000600052601260045260246000fd5b7f4e487b7100000000000000000000000000000000000000000000000000000000600052601160045260246000fd5b6000610e4f82610955565b9150610e5a83610955565b925082610e6a57610e69610de6565b5b828204905092915050565b7f4e487b7100000000000000000000000000000000000000000000000000000000600052602260045260246000fd5b60006002820490506001821680610ebc57607f821691505b60208210811415610ed057610ecf610e75565b5b50919050565b6000610ee182610955565b91507fffffffffffffffffffffffffffffffffffffffffffffffffffffffffffffffff821415610f1457610f13610e15565b5b60018201905091905056fea2646970667358221220452d0bc43c3a4ccb2697bda9c7bf8dd20b688371ae86244ee2ea4d7f5b9b344c64736f6c63430008090033","opcodes":"PUSH1 0x80 PUSH1 0x40 MSTORE CALLVALUE DUP1 ISZERO PUSH3 0x11 JUMPI PUSH1 0x0 DUP1 REVERT JUMPDEST POP PUSH1 0x40 MLOAD PUSH3 0x10D8 CODESIZE SUB DUP1 PUSH3 0x10D8 DUP4 CODECOPY DUP2 DUP2 ADD PUSH1 0x40 MSTORE DUP2 ADD SWAP1 PUSH3 0x37 SWAP2 SWAP1 PUSH3 0x12C JUMP JUMPDEST DUP1 PUSH1 0x2 PUSH1 0x0 PUSH2 0x100 EXP DUP2 SLOAD DUP2 PUSH20 0xFFFFFFFFFFFFFFFFFFFFFFFFFFFFFFFFFFFFFFFF MUL NOT AND SWAP1 DUP4 PUSH20 0xFFFFFFFFFFFFFFFFFFFFFFFFFFFFFFFFFFFFFFFF AND MUL OR SWAP1 SSTORE POP DUP2 PUSH1 0x3 DUP2 SWAP1 SSTORE POP POP POP PUSH3 0x173 JUMP JUMPDEST PUSH1 0x0 DUP1 REVERT JUMPDEST PUSH1 0x0 DUP2 SWAP1 POP SWAP2 SWAP1 POP JUMP JUMPDEST PUSH3 0xA1 DUP2 PUSH3 0x8C JUMP JUMPDEST DUP2 EQ PUSH3 0xAD JUMPI PUSH1 0x0 DUP1 REVERT JUMPDEST POP JUMP JUMPDEST PUSH1 0x0 DUP2 MLOAD SWAP1 POP PUSH3 0xC1 DUP2 PUSH3 0x96 JUMP JUMPDEST SWAP3 SWAP2 POP POP JUMP JUMPDEST PUSH1 0x0 PUSH20 0xFFFFFFFFFFFFFFFFFFFFFFFFFFFFFFFFFFFFFFFF DUP3 AND SWAP1 POP SWAP2 SWAP1 POP JUMP JUMPDEST PUSH1 0x0 PUSH3 0xF4 DUP3 PUSH3 0xC7 JUMP JUMPDEST SWAP1 POP SWAP2 SWAP1 POP JUMP JUMPDEST PUSH3 0x106 DUP2 PUSH3 0xE7 JUMP JUMPDEST DUP2 EQ PUSH3 0x112 JUMPI PUSH1 0x0 DUP1 REVERT JUMPDEST POP JUMP JUMPDEST PUSH1 0x0 DUP2 MLOAD SWAP1 POP PUSH3 0x126 DUP2 PUSH3 0xFB JUMP JUMPDEST SWAP3 SWAP2 POP POP JUMP JUMPDEST PUSH1 0x0 DUP1 PUSH1 0x40 DUP4 DUP6 SUB SLT ISZERO PUSH3 0x146 JUMPI PUSH3 0x145 PUSH3 0x87 JUMP JUMPDEST JUMPDEST PUSH1 0x0 PUSH3 0x156 DUP6 DUP3 DUP7 ADD PUSH3 0xB0 JUMP JUMPDEST SWAP3 POP POP PUSH1 0x20 PUSH3 0x169 DUP6 DUP3 DUP7 ADD PUSH3 0x115 JUMP JUMPDEST SWAP2 POP POP SWAP3 POP SWAP3 SWAP1 POP JUMP JUMPDEST PUSH2 0xF55 DUP1 PUSH3 0x183 PUSH1 0x0 CODECOPY PUSH1 0x0 RETURN INVALID PUSH1 0x80 PUSH1 0x40 MSTORE PUSH1 0x4 CALLDATASIZE LT PUSH2 0x9C JUMPI PUSH1 0x0 CALLDATALOAD PUSH1 0xE0 SHR DUP1 PUSH4 0x81D12C58 GT PUSH2 0x64 JUMPI DUP1 PUSH4 0x81D12C58 EQ PUSH2 0x18C JUMPI DUP1 PUSH4 0x82FDE093 EQ PUSH2 0x1CD JUMPI DUP1 PUSH4 0x8A9CFD55 EQ PUSH2 0x1F8 JUMPI DUP1 PUSH4 0x937E09B1 EQ PUSH2 0x221 JUMPI DUP1 PUSH4 0xD7BB99BA EQ PUSH2 0x24C JUMPI DUP1 PUSH4 0xD7D1BBDB EQ PUSH2 0x256 JUMPI PUSH2 0x9C JUMP JUMPDEST DUP1 PUSH4 0x3441006 EQ PUSH2 0xA1 JUMPI DUP1 PUSH4 0xA144391 EQ PUSH2 0xCA JUMPI DUP1 PUSH4 0x3410452A EQ PUSH2 0x107 JUMPI DUP1 PUSH4 0x4051DDAC EQ PUSH2 0x132 JUMPI DUP1 PUSH4 0x481C6A75 EQ PUSH2 0x161 JUMPI JUMPDEST PUSH1 0x0 DUP1 REVERT JUMPDEST CALLVALUE DUP1 ISZERO PUSH2 0xAD JUMPI PUSH1 0x0 DUP1 REVERT JUMPDEST POP PUSH2 0xC8 PUSH1 0x4 DUP1 CALLDATASIZE SUB DUP2 ADD SWAP1 PUSH2 0xC3 SWAP2 SWAP1 PUSH2 0x98B JUMP JUMPDEST PUSH2 0x27F JUMP JUMPDEST STOP JUMPDEST CALLVALUE DUP1 ISZERO PUSH2 0xD6 JUMPI PUSH1 0x0 DUP1 REVERT JUMPDEST POP PUSH2 0xF1 PUSH1 0x4 DUP1 CALLDATASIZE SUB DUP2 ADD SWAP1 PUSH2 0xEC SWAP2 SWAP1 PUSH2 0xA16 JUMP JUMPDEST PUSH2 0x3C9 JUMP JUMPDEST PUSH1 0x40 MLOAD PUSH2 0xFE SWAP2 SWAP1 PUSH2 0xA5E JUMP JUMPDEST PUSH1 0x40 MLOAD DUP1 SWAP2 SUB SWAP1 RETURN JUMPDEST CALLVALUE DUP1 ISZERO PUSH2 0x113 JUMPI PUSH1 0x0 DUP1 REVERT JUMPDEST POP PUSH2 0x11C PUSH2 0x3E9 JUMP JUMPDEST PUSH1 0x40 MLOAD PUSH2 0x129 SWAP2 SWAP1 PUSH2 0xA88 JUMP JUMPDEST PUSH1 0x40 MLOAD DUP1 SWAP2 SUB SWAP1 RETURN JUMPDEST CALLVALUE DUP1 ISZERO PUSH2 0x13E JUMPI PUSH1 0x0 DUP1 REVERT JUMPDEST POP PUSH2 0x147 PUSH2 0x3F6 JUMP JUMPDEST PUSH1 0x40 MLOAD PUSH2 0x158 SWAP6 SWAP5 SWAP4 SWAP3 SWAP2 SWAP1 PUSH2 0xAB2 JUMP JUMPDEST PUSH1 0x40 MLOAD DUP1 SWAP2 SUB SWAP1 RETURN JUMPDEST CALLVALUE DUP1 ISZERO PUSH2 0x16D JUMPI PUSH1 0x0 DUP1 REVERT JUMPDEST POP PUSH2 0x176 PUSH2 0x43F JUMP JUMPDEST PUSH1 0x40 MLOAD PUSH2 0x183 SWAP2 SWAP1 PUSH2 0xB05 JUMP JUMPDEST PUSH1 0x40 MLOAD DUP1 SWAP2 SUB SWAP1 RETURN JUMPDEST CALLVALUE DUP1 ISZERO PUSH2 0x198 JUMPI PUSH1 0x0 DUP1 REVERT JUMPDEST POP PUSH2 0x1B3 PUSH1 0x4 DUP1 CALLDATASIZE SUB DUP2 ADD SWAP1 PUSH2 0x1AE SWAP2 SWAP1 PUSH2 0x98B JUMP JUMPDEST PUSH2 0x465 JUMP JUMPDEST PUSH1 0x40 MLOAD PUSH2 0x1C4 SWAP6 SWAP5 SWAP4 SWAP3 SWAP2 SWAP1 PUSH2 0xBB9 JUMP JUMPDEST PUSH1 0x40 MLOAD DUP1 SWAP2 SUB SWAP1 RETURN JUMPDEST CALLVALUE DUP1 ISZERO PUSH2 0x1D9 JUMPI PUSH1 0x0 DUP1 REVERT JUMPDEST POP PUSH2 0x1E2 PUSH2 0x560 JUMP JUMPDEST PUSH1 0x40 MLOAD PUSH2 0x1EF SWAP2 SWAP1 PUSH2 0xA88 JUMP JUMPDEST PUSH1 0x40 MLOAD DUP1 SWAP2 SUB SWAP1 RETURN JUMPDEST CALLVALUE DUP1 ISZERO PUSH2 0x204 JUMPI PUSH1 0x0 DUP1 REVERT JUMPDEST POP PUSH2 0x21F PUSH1 0x4 DUP1 CALLDATASIZE SUB DUP2 ADD SWAP1 PUSH2 0x21A SWAP2 SWAP1 PUSH2 0xD48 JUMP JUMPDEST PUSH2 0x566 JUMP JUMPDEST STOP JUMPDEST CALLVALUE DUP1 ISZERO PUSH2 0x22D JUMPI PUSH1 0x0 DUP1 REVERT JUMPDEST POP PUSH2 0x236 PUSH2 0x6D1 JUMP JUMPDEST PUSH1 0x40 MLOAD PUSH2 0x243 SWAP2 SWAP1 PUSH2 0xA88 JUMP JUMPDEST PUSH1 0x40 MLOAD DUP1 SWAP2 SUB SWAP1 RETURN JUMPDEST PUSH2 0x254 PUSH2 0x6D7 JUMP JUMPDEST STOP JUMPDEST CALLVALUE DUP1 ISZERO PUSH2 0x262 JUMPI PUSH1 0x0 DUP1 REVERT JUMPDEST POP PUSH2 0x27D PUSH1 0x4 DUP1 CALLDATASIZE SUB DUP2 ADD SWAP1 PUSH2 0x278 SWAP2 SWAP1 PUSH2 0x98B JUMP JUMPDEST PUSH2 0x757 JUMP JUMPDEST STOP JUMPDEST PUSH1 0x2 PUSH1 0x0 SWAP1 SLOAD SWAP1 PUSH2 0x100 EXP SWAP1 DIV PUSH20 0xFFFFFFFFFFFFFFFFFFFFFFFFFFFFFFFFFFFFFFFF AND PUSH20 0xFFFFFFFFFFFFFFFFFFFFFFFFFFFFFFFFFFFFFFFF AND CALLER PUSH20 0xFFFFFFFFFFFFFFFFFFFFFFFFFFFFFFFFFFFFFFFF AND EQ PUSH2 0x2D9 JUMPI PUSH1 0x0 DUP1 REVERT JUMPDEST PUSH1 0x0 PUSH1 0x1 DUP3 DUP2 SLOAD DUP2 LT PUSH2 0x2EF JUMPI PUSH2 0x2EE PUSH2 0xDB7 JUMP JUMPDEST JUMPDEST SWAP1 PUSH1 0x0 MSTORE PUSH1 0x20 PUSH1 0x0 KECCAK256 SWAP1 PUSH1 0x4 MUL ADD SWAP1 POP PUSH1 0x2 PUSH1 0x5 SLOAD PUSH2 0x30E SWAP2 SWAP1 PUSH2 0xE44 JUMP JUMPDEST DUP2 PUSH1 0x3 ADD SLOAD GT PUSH2 0x31D JUMPI PUSH1 0x0 DUP1 REVERT JUMPDEST DUP1 PUSH1 0x2 ADD PUSH1 0x14 SWAP1 SLOAD SWAP1 PUSH2 0x100 EXP SWAP1 DIV PUSH1 0xFF AND ISZERO PUSH2 0x339 JUMPI PUSH1 0x0 DUP1 REVERT JUMPDEST DUP1 PUSH1 0x2 ADD PUSH1 0x0 SWAP1 SLOAD SWAP1 PUSH2 0x100 EXP SWAP1 DIV PUSH20 0xFFFFFFFFFFFFFFFFFFFFFFFFFFFFFFFFFFFFFFFF AND PUSH20 0xFFFFFFFFFFFFFFFFFFFFFFFFFFFFFFFFFFFFFFFF AND PUSH2 0x8FC DUP3 PUSH1 0x1 ADD SLOAD SWAP1 DUP2 ISZERO MUL SWAP1 PUSH1 0x40 MLOAD PUSH1 0x0 PUSH1 0x40 MLOAD DUP1 DUP4 SUB DUP2 DUP6 DUP9 DUP9 CALL SWAP4 POP POP POP POP ISZERO DUP1 ISZERO PUSH2 0x3A7 JUMPI RETURNDATASIZE PUSH1 0x0 DUP1 RETURNDATACOPY RETURNDATASIZE PUSH1 0x0 REVERT JUMPDEST POP PUSH1 0x1 DUP2 PUSH1 0x2 ADD PUSH1 0x14 PUSH2 0x100 EXP DUP2 SLOAD DUP2 PUSH1 0xFF MUL NOT AND SWAP1 DUP4 ISZERO ISZERO MUL OR SWAP1 SSTORE POP POP POP JUMP JUMPDEST PUSH1 0x4 PUSH1 0x20 MSTORE DUP1 PUSH1 0x0 MSTORE PUSH1 0x40 PUSH1 0x0 KECCAK256 PUSH1 0x0 SWAP2 POP SLOAD SWAP1 PUSH2 0x100 EXP SWAP1 DIV PUSH1 0xFF AND DUP2 JUMP JUMPDEST PUSH1 0x0 PUSH1 0x1 DUP1 SLOAD SWAP1 POP SWAP1 POP SWAP1 JUMP JUMPDEST PUSH1 0x0 DUP1 PUSH1 0x0 DUP1 PUSH1 0x0 PUSH1 0x3 SLOAD SELFBALANCE PUSH1 0x1 DUP1 SLOAD SWAP1 POP PUSH1 0x5 SLOAD PUSH1 0x2 PUSH1 0x0 SWAP1 SLOAD SWAP1 PUSH2 0x100 EXP SWAP1 DIV PUSH20 0xFFFFFFFFFFFFFFFFFFFFFFFFFFFFFFFFFFFFFFFF AND SWAP5 POP SWAP5 POP SWAP5 POP SWAP5 POP SWAP5 POP SWAP1 SWAP2 SWAP3 SWAP4 SWAP5 JUMP JUMPDEST PUSH1 0x2 PUSH1 0x0 SWAP1 SLOAD SWAP1 PUSH2 0x100 EXP SWAP1 DIV PUSH20 0xFFFFFFFFFFFFFFFFFFFFFFFFFFFFFFFFFFFFFFFF AND DUP2 JUMP JUMPDEST PUSH1 0x1 DUP2 DUP2 SLOAD DUP2 LT PUSH2 0x475 JUMPI PUSH1 0x0 DUP1 REVERT JUMPDEST SWAP1 PUSH1 0x0 MSTORE PUSH1 0x20 PUSH1 0x0 KECCAK256 SWAP1 PUSH1 0x4 MUL ADD PUSH1 0x0 SWAP2 POP SWAP1 POP DUP1 PUSH1 0x0 ADD DUP1 SLOAD PUSH2 0x498 SWAP1 PUSH2 0xEA4 JUMP JUMPDEST DUP1 PUSH1 0x1F ADD PUSH1 0x20 DUP1 SWAP2 DIV MUL PUSH1 0x20 ADD PUSH1 0x40 MLOAD SWAP1 DUP2 ADD PUSH1 0x40 MSTORE DUP1 SWAP3 SWAP2 SWAP1 DUP2 DUP2 MSTORE PUSH1 0x20 ADD DUP3 DUP1 SLOAD PUSH2 0x4C4 SWAP1 PUSH2 0xEA4 JUMP JUMPDEST DUP1 ISZERO PUSH2 0x511 JUMPI DUP1 PUSH1 0x1F LT PUSH2 0x4E6 JUMPI PUSH2 0x100 DUP1 DUP4 SLOAD DIV MUL DUP4 MSTORE SWAP2 PUSH1 0x20 ADD SWAP2 PUSH2 0x511 JUMP JUMPDEST DUP3 ADD SWAP2 SWAP1 PUSH1 0x0 MSTORE PUSH1 0x20 PUSH1 0x0 KECCAK256 SWAP1 JUMPDEST DUP2 SLOAD DUP2 MSTORE SWAP1 PUSH1 0x1 ADD SWAP1 PUSH1 0x20 ADD DUP1 DUP4 GT PUSH2 0x4F4 JUMPI DUP3 SWAP1 SUB PUSH1 0x1F AND DUP3 ADD SWAP2 JUMPDEST POP POP POP POP POP SWAP1 DUP1 PUSH1 0x1 ADD SLOAD SWAP1 DUP1 PUSH1 0x2 ADD PUSH1 0x0 SWAP1 SLOAD SWAP1 PUSH2 0x100 EXP SWAP1 DIV PUSH20 0xFFFFFFFFFFFFFFFFFFFFFFFFFFFFFFFFFFFFFFFF AND SWAP1 DUP1 PUSH1 0x2 ADD PUSH1 0x14 SWAP1 SLOAD SWAP1 PUSH2 0x100 EXP SWAP1 DIV PUSH1 0xFF AND SWAP1 DUP1 PUSH1 0x3 ADD SLOAD SWAP1 POP DUP6 JUMP JUMPDEST PUSH1 0x5 SLOAD DUP2 JUMP JUMPDEST PUSH1 0x2 PUSH1 0x0 SWAP1 SLOAD SWAP1 PUSH2 0x100 EXP SWAP1 DIV PUSH20 0xFFFFFFFFFFFFFFFFFFFFFFFFFFFFFFFFFFFFFFFF AND PUSH20 0xFFFFFFFFFFFFFFFFFFFFFFFFFFFFFFFFFFFFFFFF AND CALLER PUSH20 0xFFFFFFFFFFFFFFFFFFFFFFFFFFFFFFFFFFFFFFFF AND EQ PUSH2 0x5C0 JUMPI PUSH1 0x0 DUP1 REVERT JUMPDEST PUSH1 0x0 PUSH1 0x40 MLOAD DUP1 PUSH1 0xA0 ADD PUSH1 0x40 MSTORE DUP1 DUP6 DUP2 MSTORE PUSH1 0x20 ADD DUP5 DUP2 MSTORE PUSH1 0x20 ADD DUP4 PUSH20 0xFFFFFFFFFFFFFFFFFFFFFFFFFFFFFFFFFFFFFFFF AND DUP2 MSTORE PUSH1 0x20 ADD PUSH1 0x0 ISZERO ISZERO DUP2 MSTORE PUSH1 0x20 ADD PUSH1 0x0 DUP2 MSTORE POP SWAP1 POP PUSH1 0x1 DUP2 SWAP1 DUP1 PUSH1 0x1 DUP2 SLOAD ADD DUP1 DUP3 SSTORE DUP1 SWAP2 POP POP PUSH1 0x1 SWAP1 SUB SWAP1 PUSH1 0x0 MSTORE PUSH1 0x20 PUSH1 0x0 KECCAK256 SWAP1 PUSH1 0x4 MUL ADD PUSH1 0x0 SWAP1 SWAP2 SWAP1 SWAP2 SWAP1 SWAP2 POP PUSH1 0x0 DUP3 ADD MLOAD DUP2 PUSH1 0x0 ADD SWAP1 DUP1 MLOAD SWAP1 PUSH1 0x20 ADD SWAP1 PUSH2 0x64D SWAP3 SWAP2 SWAP1 PUSH2 0x89E JUMP JUMPDEST POP PUSH1 0x20 DUP3 ADD MLOAD DUP2 PUSH1 0x1 ADD SSTORE PUSH1 0x40 DUP3 ADD MLOAD DUP2 PUSH1 0x2 ADD PUSH1 0x0 PUSH2 0x100 EXP DUP2 SLOAD DUP2 PUSH20 0xFFFFFFFFFFFFFFFFFFFFFFFFFFFFFFFFFFFFFFFF MUL NOT AND SWAP1 DUP4 PUSH20 0xFFFFFFFFFFFFFFFFFFFFFFFFFFFFFFFFFFFFFFFF AND MUL OR SWAP1 SSTORE POP PUSH1 0x60 DUP3 ADD MLOAD DUP2 PUSH1 0x2 ADD PUSH1 0x14 PUSH2 0x100 EXP DUP2 SLOAD DUP2 PUSH1 0xFF MUL NOT AND SWAP1 DUP4 ISZERO ISZERO MUL OR SWAP1 SSTORE POP PUSH1 0x80 DUP3 ADD MLOAD DUP2 PUSH1 0x3 ADD SSTORE POP POP POP POP POP POP JUMP JUMPDEST PUSH1 0x3 SLOAD DUP2 JUMP JUMPDEST PUSH1 0x3 SLOAD CALLVALUE GT PUSH2 0x6E5 JUMPI PUSH1 0x0 DUP1 REVERT JUMPDEST PUSH1 0x1 PUSH1 0x4 PUSH1 0x0 CALLER PUSH20 0xFFFFFFFFFFFFFFFFFFFFFFFFFFFFFFFFFFFFFFFF AND PUSH20 0xFFFFFFFFFFFFFFFFFFFFFFFFFFFFFFFFFFFFFFFF AND DUP2 MSTORE PUSH1 0x20 ADD SWAP1 DUP2 MSTORE PUSH1 0x20 ADD PUSH1 0x0 KECCAK256 PUSH1 0x0 PUSH2 0x100 EXP DUP2 SLOAD DUP2 PUSH1 0xFF MUL NOT AND SWAP1 DUP4 ISZERO ISZERO MUL OR SWAP1 SSTORE POP PUSH1 0x5 PUSH1 0x0 DUP2 SLOAD DUP1 SWAP3 SWAP2 SWAP1 PUSH2 0x750 SWAP1 PUSH2 0xED6 JUMP JUMPDEST SWAP2 SWAP1 POP SSTORE POP JUMP JUMPDEST PUSH1 0x0 PUSH1 0x1 DUP3 DUP2 SLOAD DUP2 LT PUSH2 0x76D JUMPI PUSH2 0x76C PUSH2 0xDB7 JUMP JUMPDEST JUMPDEST SWAP1 PUSH1 0x0 MSTORE PUSH1 0x20 PUSH1 0x0 KECCAK256 SWAP1 PUSH1 0x4 MUL ADD SWAP1 POP PUSH1 0x4 PUSH1 0x0 CALLER PUSH20 0xFFFFFFFFFFFFFFFFFFFFFFFFFFFFFFFFFFFFFFFF AND PUSH20 0xFFFFFFFFFFFFFFFFFFFFFFFFFFFFFFFFFFFFFFFF AND DUP2 MSTORE PUSH1 0x20 ADD SWAP1 DUP2 MSTORE PUSH1 0x20 ADD PUSH1 0x0 KECCAK256 PUSH1 0x0 SWAP1 SLOAD SWAP1 PUSH2 0x100 EXP SWAP1 DIV PUSH1 0xFF AND PUSH2 0x7D3 JUMPI PUSH1 0x0 DUP1 REVERT JUMPDEST PUSH1 0x0 DUP1 CALLER PUSH20 0xFFFFFFFFFFFFFFFFFFFFFFFFFFFFFFFFFFFFFFFF AND PUSH20 0xFFFFFFFFFFFFFFFFFFFFFFFFFFFFFFFFFFFFFFFF AND DUP2 MSTORE PUSH1 0x20 ADD SWAP1 DUP2 MSTORE PUSH1 0x20 ADD PUSH1 0x0 KECCAK256 PUSH1 0x0 SWAP1 SLOAD SWAP1 PUSH2 0x100 EXP SWAP1 DIV PUSH1 0xFF AND ISZERO PUSH2 0x829 JUMPI PUSH1 0x0 DUP1 REVERT JUMPDEST PUSH1 0x1 PUSH1 0x0 DUP1 CALLER PUSH20 0xFFFFFFFFFFFFFFFFFFFFFFFFFFFFFFFFFFFFFFFF AND PUSH20 0xFFFFFFFFFFFFFFFFFFFFFFFFFFFFFFFFFFFFFFFF AND DUP2 MSTORE PUSH1 0x20 ADD SWAP1 DUP2 MSTORE PUSH1 0x20 ADD PUSH1 0x0 KECCAK256 PUSH1 0x0 PUSH2 0x100 EXP DUP2 SLOAD DUP2 PUSH1 0xFF MUL NOT AND SWAP1 DUP4 ISZERO ISZERO MUL OR SWAP1 SSTORE POP DUP1 PUSH1 0x3 ADD PUSH1 0x0 DUP2 SLOAD DUP1 SWAP3 SWAP2 SWAP1 PUSH2 0x895 SWAP1 PUSH2 0xED6 JUMP JUMPDEST SWAP2 SWAP1 POP SSTORE POP POP POP JUMP JUMPDEST DUP3 DUP1 SLOAD PUSH2 0x8AA SWAP1 PUSH2 0xEA4 JUMP JUMPDEST SWAP1 PUSH1 0x0 MSTORE PUSH1 0x20 PUSH1 0x0 KECCAK256 SWAP1 PUSH1 0x1F ADD PUSH1 0x20 SWAP1 DIV DUP2 ADD SWAP3 DUP3 PUSH2 0x8CC JUMPI PUSH1 0x0 DUP6 SSTORE PUSH2 0x913 JUMP JUMPDEST DUP3 PUSH1 0x1F LT PUSH2 0x8E5 JUMPI DUP1 MLOAD PUSH1 0xFF NOT AND DUP4 DUP1 ADD OR DUP6 SSTORE PUSH2 0x913 JUMP JUMPDEST DUP3 DUP1 ADD PUSH1 0x1 ADD DUP6 SSTORE DUP3 ISZERO PUSH2 0x913 JUMPI SWAP2 DUP3 ADD JUMPDEST DUP3 DUP2 GT ISZERO PUSH2 0x912 JUMPI DUP3 MLOAD DUP3 SSTORE SWAP2 PUSH1 0x20 ADD SWAP2 SWAP1 PUSH1 0x1 ADD SWAP1 PUSH2 0x8F7 JUMP JUMPDEST JUMPDEST POP SWAP1 POP PUSH2 0x920 SWAP2 SWAP1 PUSH2 0x924 JUMP JUMPDEST POP SWAP1 JUMP JUMPDEST JUMPDEST DUP1 DUP3 GT ISZERO PUSH2 0x93D JUMPI PUSH1 0x0 DUP2 PUSH1 0x0 SWAP1 SSTORE POP PUSH1 0x1 ADD PUSH2 0x925 JUMP JUMPDEST POP SWAP1 JUMP JUMPDEST PUSH1 0x0 PUSH1 0x40 MLOAD SWAP1 POP SWAP1 JUMP JUMPDEST PUSH1 0x0 DUP1 REVERT JUMPDEST PUSH1 0x0 DUP1 REVERT JUMPDEST PUSH1 0x0 DUP2 SWAP1 POP SWAP2 SWAP1 POP JUMP JUMPDEST PUSH2 0x968 DUP2 PUSH2 0x955 JUMP JUMPDEST DUP2 EQ PUSH2 0x973 JUMPI PUSH1 0x0 DUP1 REVERT JUMPDEST POP JUMP JUMPDEST PUSH1 0x0 DUP2 CALLDATALOAD SWAP1 POP PUSH2 0x985 DUP2 PUSH2 0x95F JUMP JUMPDEST SWAP3 SWAP2 POP POP JUMP JUMPDEST PUSH1 0x0 PUSH1 0x20 DUP3 DUP5 SUB SLT ISZERO PUSH2 0x9A1 JUMPI PUSH2 0x9A0 PUSH2 0x94B JUMP JUMPDEST JUMPDEST PUSH1 0x0 PUSH2 0x9AF DUP5 DUP3 DUP6 ADD PUSH2 0x976 JUMP JUMPDEST SWAP2 POP POP SWAP3 SWAP2 POP POP JUMP JUMPDEST PUSH1 0x0 PUSH20 0xFFFFFFFFFFFFFFFFFFFFFFFFFFFFFFFFFFFFFFFF DUP3 AND SWAP1 POP SWAP2 SWAP1 POP JUMP JUMPDEST PUSH1 0x0 PUSH2 0x9E3 DUP3 PUSH2 0x9B8 JUMP JUMPDEST SWAP1 POP SWAP2 SWAP1 POP JUMP JUMPDEST PUSH2 0x9F3 DUP2 PUSH2 0x9D8 JUMP JUMPDEST DUP2 EQ PUSH2 0x9FE JUMPI PUSH1 0x0 DUP1 REVERT JUMPDEST POP JUMP JUMPDEST PUSH1 0x0 DUP2 CALLDATALOAD SWAP1 POP PUSH2 0xA10 DUP2 PUSH2 0x9EA JUMP JUMPDEST SWAP3 SWAP2 POP POP JUMP JUMPDEST PUSH1 0x0 PUSH1 0x20 DUP3 DUP5 SUB SLT ISZERO PUSH2 0xA2C JUMPI PUSH2 0xA2B PUSH2 0x94B JUMP JUMPDEST JUMPDEST PUSH1 0x0 PUSH2 0xA3A DUP5 DUP3 DUP6 ADD PUSH2 0xA01 JUMP JUMPDEST SWAP2 POP POP SWAP3 SWAP2 POP POP JUMP JUMPDEST PUSH1 0x0 DUP2 ISZERO ISZERO SWAP1 POP SWAP2 SWAP1 POP JUMP JUMPDEST PUSH2 0xA58 DUP2 PUSH2 0xA43 JUMP JUMPDEST DUP3 MSTORE POP POP JUMP JUMPDEST PUSH1 0x0 PUSH1 0x20 DUP3 ADD SWAP1 POP PUSH2 0xA73 PUSH1 0x0 DUP4 ADD DUP5 PUSH2 0xA4F JUMP JUMPDEST SWAP3 SWAP2 POP POP JUMP JUMPDEST PUSH2 0xA82 DUP2 PUSH2 0x955 JUMP JUMPDEST DUP3 MSTORE POP POP JUMP JUMPDEST PUSH1 0x0 PUSH1 0x20 DUP3 ADD SWAP1 POP PUSH2 0xA9D PUSH1 0x0 DUP4 ADD DUP5 PUSH2 0xA79 JUMP JUMPDEST SWAP3 SWAP2 POP POP JUMP JUMPDEST PUSH2 0xAAC DUP2 PUSH2 0x9D8 JUMP JUMPDEST DUP3 MSTORE POP POP JUMP JUMPDEST PUSH1 0x0 PUSH1 0xA0 DUP3 ADD SWAP1 POP PUSH2 0xAC7 PUSH1 0x0 DUP4 ADD DUP9 PUSH2 0xA79 JUMP JUMPDEST PUSH2 0xAD4 PUSH1 0x20 DUP4 ADD DUP8 PUSH2 0xA79 JUMP JUMPDEST PUSH2 0xAE1 PUSH1 0x40 DUP4 ADD DUP7 PUSH2 0xA79 JUMP JUMPDEST PUSH2 0xAEE PUSH1 0x60 DUP4 ADD DUP6 PUSH2 0xA79 JUMP JUMPDEST PUSH2 0xAFB PUSH1 0x80 DUP4 ADD DUP5 PUSH2 0xAA3 JUMP JUMPDEST SWAP7 SWAP6 POP POP POP POP POP POP JUMP JUMPDEST PUSH1 0x0 PUSH1 0x20 DUP3 ADD SWAP1 POP PUSH2 0xB1A PUSH1 0x0 DUP4 ADD DUP5 PUSH2 0xAA3 JUMP JUMPDEST SWAP3 SWAP2 POP POP JUMP JUMPDEST PUSH1 0x0 DUP2 MLOAD SWAP1 POP SWAP2 SWAP1 POP JUMP JUMPDEST PUSH1 0x0 DUP3 DUP3 MSTORE PUSH1 0x20 DUP3 ADD SWAP1 POP SWAP3 SWAP2 POP POP JUMP JUMPDEST PUSH1 0x0 JUMPDEST DUP4 DUP2 LT ISZERO PUSH2 0xB5A JUMPI DUP1 DUP3 ADD MLOAD DUP2 DUP5 ADD MSTORE PUSH1 0x20 DUP2 ADD SWAP1 POP PUSH2 0xB3F JUMP JUMPDEST DUP4 DUP2 GT ISZERO PUSH2 0xB69 JUMPI PUSH1 0x0 DUP5 DUP5 ADD MSTORE JUMPDEST POP POP POP POP JUMP JUMPDEST PUSH1 0x0 PUSH1 0x1F NOT PUSH1 0x1F DUP4 ADD AND SWAP1 POP SWAP2 SWAP1 POP JUMP JUMPDEST PUSH1 0x0 PUSH2 0xB8B DUP3 PUSH2 0xB20 JUMP JUMPDEST PUSH2 0xB95 DUP2 DUP6 PUSH2 0xB2B JUMP JUMPDEST SWAP4 POP PUSH2 0xBA5 DUP2 DUP6 PUSH1 0x20 DUP7 ADD PUSH2 0xB3C JUMP JUMPDEST PUSH2 0xBAE DUP2 PUSH2 0xB6F JUMP JUMPDEST DUP5 ADD SWAP2 POP POP SWAP3 SWAP2 POP POP JUMP JUMPDEST PUSH1 0x0 PUSH1 0xA0 DUP3 ADD SWAP1 POP DUP2 DUP2 SUB PUSH1 0x0 DUP4 ADD MSTORE PUSH2 0xBD3 DUP2 DUP9 PUSH2 0xB80 JUMP JUMPDEST SWAP1 POP PUSH2 0xBE2 PUSH1 0x20 DUP4 ADD DUP8 PUSH2 0xA79 JUMP JUMPDEST PUSH2 0xBEF PUSH1 0x40 DUP4 ADD DUP7 PUSH2 0xAA3 JUMP JUMPDEST PUSH2 0xBFC PUSH1 0x60 DUP4 ADD DUP6 PUSH2 0xA4F JUMP JUMPDEST PUSH2 0xC09 PUSH1 0x80 DUP4 ADD DUP5 PUSH2 0xA79 JUMP JUMPDEST SWAP7 SWAP6 POP POP POP POP POP POP JUMP JUMPDEST PUSH1 0x0 DUP1 REVERT JUMPDEST PUSH1 0x0 DUP1 REVERT JUMPDEST PUSH32 0x4E487B7100000000000000000000000000000000000000000000000000000000 PUSH1 0x0 MSTORE PUSH1 0x41 PUSH1 0x4 MSTORE PUSH1 0x24 PUSH1 0x0 REVERT JUMPDEST PUSH2 0xC55 DUP3 PUSH2 0xB6F JUMP JUMPDEST DUP2 ADD DUP2 DUP2 LT PUSH8 0xFFFFFFFFFFFFFFFF DUP3 GT OR ISZERO PUSH2 0xC74 JUMPI PUSH2 0xC73 PUSH2 0xC1D JUMP JUMPDEST JUMPDEST DUP1 PUSH1 0x40 MSTORE POP POP POP JUMP JUMPDEST PUSH1 0x0 PUSH2 0xC87 PUSH2 0x941 JUMP JUMPDEST SWAP1 POP PUSH2 0xC93 DUP3 DUP3 PUSH2 0xC4C JUMP JUMPDEST SWAP2 SWAP1 POP JUMP JUMPDEST PUSH1 0x0 PUSH8 0xFFFFFFFFFFFFFFFF DUP3 GT ISZERO PUSH2 0xCB3 JUMPI PUSH2 0xCB2 PUSH2 0xC1D JUMP JUMPDEST JUMPDEST PUSH2 0xCBC DUP3 PUSH2 0xB6F JUMP JUMPDEST SWAP1 POP PUSH1 0x20 DUP2 ADD SWAP1 POP SWAP2 SWAP1 POP JUMP JUMPDEST DUP3 DUP2 DUP4 CALLDATACOPY PUSH1 0x0 DUP4 DUP4 ADD MSTORE POP POP POP JUMP JUMPDEST PUSH1 0x0 PUSH2 0xCEB PUSH2 0xCE6 DUP5 PUSH2 0xC98 JUMP JUMPDEST PUSH2 0xC7D JUMP JUMPDEST SWAP1 POP DUP3 DUP2 MSTORE PUSH1 0x20 DUP2 ADD DUP5 DUP5 DUP5 ADD GT ISZERO PUSH2 0xD07 JUMPI PUSH2 0xD06 PUSH2 0xC18 JUMP JUMPDEST JUMPDEST PUSH2 0xD12 DUP5 DUP3 DUP6 PUSH2 0xCC9 JUMP JUMPDEST POP SWAP4 SWAP3 POP POP POP JUMP JUMPDEST PUSH1 0x0 DUP3 PUSH1 0x1F DUP4 ADD SLT PUSH2 0xD2F JUMPI PUSH2 0xD2E PUSH2 0xC13 JUMP JUMPDEST JUMPDEST DUP2 CALLDATALOAD PUSH2 0xD3F DUP5 DUP3 PUSH1 0x20 DUP7 ADD PUSH2 0xCD8 JUMP JUMPDEST SWAP2 POP POP SWAP3 SWAP2 POP POP JUMP JUMPDEST PUSH1 0x0 DUP1 PUSH1 0x0 PUSH1 0x60 DUP5 DUP7 SUB SLT ISZERO PUSH2 0xD61 JUMPI PUSH2 0xD60 PUSH2 0x94B JUMP JUMPDEST JUMPDEST PUSH1 0x0 DUP5 ADD CALLDATALOAD PUSH8 0xFFFFFFFFFFFFFFFF DUP2 GT ISZERO PUSH2 0xD7F JUMPI PUSH2 0xD7E PUSH2 0x950 JUMP JUMPDEST JUMPDEST PUSH2 0xD8B DUP7 DUP3 DUP8 ADD PUSH2 0xD1A JUMP JUMPDEST SWAP4 POP POP PUSH1 0x20 PUSH2 0xD9C DUP7 DUP3 DUP8 ADD PUSH2 0x976 JUMP JUMPDEST SWAP3 POP POP PUSH1 0x40 PUSH2 0xDAD DUP7 DUP3 DUP8 ADD PUSH2 0xA01 JUMP JUMPDEST SWAP2 POP POP SWAP3 POP SWAP3 POP SWAP3 JUMP JUMPDEST PUSH32 0x4E487B7100000000000000000000000000000000000000000000000000000000 PUSH1 0x0 MSTORE PUSH1 0x32 PUSH1 0x4 MSTORE PUSH1 0x24 PUSH1 0x0 REVERT JUMPDEST PUSH32 0x4E487B7100000000000000000000000000000000000000000000000000000000 PUSH1 0x0 MSTORE PUSH1 0x12 PUSH1 0x4 MSTORE PUSH1 0x24 PUSH1 0x0 REVERT JUMPDEST PUSH32 0x4E487B7100000000000000000000000000000000000000000000000000000000 PUSH1 0x0 MSTORE PUSH1 0x11 PUSH1 0x4 MSTORE PUSH1 0x24 PUSH1 0x0 REVERT JUMPDEST PUSH1 0x0 PUSH2 0xE4F DUP3 PUSH2 0x955 JUMP JUMPDEST SWAP2 POP PUSH2 0xE5A DUP4 PUSH2 0x955 JUMP JUMPDEST SWAP3 POP DUP3 PUSH2 0xE6A JUMPI PUSH2 0xE69 PUSH2 0xDE6 JUMP JUMPDEST JUMPDEST DUP3 DUP3 DIV SWAP1 POP SWAP3 SWAP2 POP POP JUMP JUMPDEST PUSH32 0x4E487B7100000000000000000000000000000000000000000000000000000000 PUSH1 0x0 MSTORE PUSH1 0x22 PUSH1 0x4 MSTORE PUSH1 0x24 PUSH1 0x0 REVERT JUMPDEST PUSH1 0x0 PUSH1 0x2 DUP3 DIV SWAP1 POP PUSH1 0x1 DUP3 AND DUP1 PUSH2 0xEBC JUMPI PUSH1 0x7F DUP3 AND SWAP2 POP JUMPDEST PUSH1 0x20 DUP3 LT DUP2 EQ ISZERO PUSH2 0xED0 JUMPI PUSH2 0xECF PUSH2 0xE75 JUMP JUMPDEST JUMPDEST POP SWAP2 SWAP1 POP JUMP JUMPDEST PUSH1 0x0 PUSH2 0xEE1 DUP3 PUSH2 0x955 JUMP JUMPDEST SWAP2 POP PUSH32 0xFFFFFFFFFFFFFFFFFFFFFFFFFFFFFFFFFFFFFFFFFFFFFFFFFFFFFFFFFFFFFFFF DUP3 EQ ISZERO PUSH2 0xF14 JUMPI PUSH2 0xF13 PUSH2 0xE15 JUMP JUMPDEST JUMPDEST PUSH1 0x1 DUP3 ADD SWAP1 POP SWAP2 SWAP1 POP JUMP INVALID LOG2 PUSH5 0x6970667358 0x22 SLT KECCAK256 GASLIMIT 0x2D SIGNEXTEND 0xC4 EXTCODECOPY GASPRICE 0x4C 0xCB 0x26 SWAP8 0xBD 0xA9 0xC7 0xBF DUP14 0xD2 SIGNEXTEND PUSH9 0x8371AE86244EE2EA4D PUSH32 0x5B9B344C64736F6C634300080900330000000000000000000000000000000000 "},"gasEstimates":{"creation":{"codeDepositCost":"785000","executionCost":"infinite","totalCost":"infinite"},"external":{"approveRequest(uint256)":"infinite","approvers(address)":"2868","approversCount()":"2451","contribute()":"51046","createRequest(string,uint256,address)":"infinite","finalizeRequest(uint256)":"infinite","getRequestsCount()":"2490","getSummary()":"infinite","manager()":"2603","minimumContribution()":"2495","requests(uint256)":"infinite"}},"methodIdentifiers":{"approveRequest(uint256)":"d7d1bbdb","approvers(address)":"0a144391","approversCount()":"82fde093","contribute()":"d7bb99ba","createRequest(string,uint256,address)":"8a9cfd55","finalizeRequest(uint256)":"03441006","getRequestsCount()":"3410452a","getSummary()":"4051ddac","manager()":"481c6a75","minimumContribution()":"937e09b1","requests(uint256)":"81d12c58"}},"storageLayout":{"storage":[{"astId":43,"contract":"Campaign.sol:Campaign","label":"approvals","offset":0,"slot":"0","type":"t_mapping(t_address,t_bool)"},{"astId":58,"contract":"Campaign.sol:Campaign","label":"requests","offset":0,"slot":"1","type":"t_array(t_struct(Request)54_storage)dyn_storage"},{"astId":60,"contract":"Campaign.sol:Campaign","label":"manager","offset":0,"slot":"2","type":"t_address"},{"astId":62,"contract":"Campaign.sol:Campaign","label":"minimumContribution","offset":0,"slot":"3","type":"t_uint256"},{"astId":66,"contract":"Campaign.sol:Campaign","label":"approvers","offset":0,"slot":"4","type":"t_mapping(t_address,t_bool)"},{"astId":68,"contract":"Campaign.sol:Campaign","label":"approversCount","offset":0,"slot":"5","type":"t_uint256"}],"types":{"t_address":{"encoding":"inplace","label":"address","numberOfBytes":"20"},"t_array(t_struct(Request)54_storage)dyn_storage":{"base":"t_struct(Request)54_storage","encoding":"dynamic_array","label":"struct Campaign.Request[]","numberOfBytes":"32"},"t_bool":{"encoding":"inplace","label":"bool","numberOfBytes":"1"},"t_mapping(t_address,t_bool)":{"encoding":"mapping","key":"t_address","label":"mapping(address => bool)","numberOfBytes":"32","value":"t_bool"},"t_string_storage":{"encoding":"bytes","label":"string","numberOfBytes":"32"},"t_struct(Request)54_storage":{"encoding":"inplace","label":"struct Campaign.Request","members":[{"astId":45,"contract":"Campaign.sol:Campaign","label":"description","offset":0,"slot":"0","type":"t_string_storage"},{"astId":47,"contract":"Campaign.sol:Campaign","label":"value","offset":0,"slot":"1","type":"t_uint256"},{"astId":49,"contract":"Campaign.sol:Campaign","label":"recipient","offset":0,"slot":"2","type":"t_address"},{"astId":51,"contract":"Campaign.sol:Campaign","label":"complete","offset":20,"slot":"2","type":"t_bool"},{"astId":53,"contract":"Campaign.sol:Campaign","label":"approvalCount","offset":0,"slot":"3","type":"t_uint256"}],"numberOfBytes":"128"},"t_uint256":{"encoding":"inplace","label":"uint256","numberOfBytes":"32"}}},"userdoc":{"kind":"user","methods":{},"version":1}}